{
  "_format": "hh-sol-artifact-1",
  "contractName": "LemmaToken",
  "sourceName": "contracts/LemmaxDAI.sol",
  "abi": [
    {
      "anonymous": false,
      "inputs": [
        {
          "indexed": true,
          "internalType": "address",
          "name": "owner",
          "type": "address"
        },
        {
          "indexed": true,
          "internalType": "address",
          "name": "spender",
          "type": "address"
        },
        {
          "indexed": false,
          "internalType": "uint256",
          "name": "value",
          "type": "uint256"
        }
      ],
      "name": "Approval",
      "type": "event"
    },
    {
      "anonymous": false,
      "inputs": [
        {
          "indexed": true,
          "internalType": "address",
          "name": "account",
          "type": "address"
        },
        {
          "indexed": true,
          "internalType": "uint256",
          "name": "amount",
          "type": "uint256"
        }
      ],
      "name": "DepositInfoAdded",
      "type": "event"
    },
    {
      "anonymous": false,
      "inputs": [
        {
          "indexed": true,
          "internalType": "address",
          "name": "previousOwner",
          "type": "address"
        },
        {
          "indexed": true,
          "internalType": "address",
          "name": "newOwner",
          "type": "address"
        }
      ],
      "name": "OwnershipTransferred",
      "type": "event"
    },
    {
      "anonymous": false,
      "inputs": [
        {
          "indexed": true,
          "internalType": "address",
          "name": "from",
          "type": "address"
        },
        {
          "indexed": true,
          "internalType": "address",
          "name": "to",
          "type": "address"
        },
        {
          "indexed": false,
          "internalType": "uint256",
          "name": "value",
          "type": "uint256"
        }
      ],
      "name": "Transfer",
      "type": "event"
    },
    {
      "anonymous": false,
      "inputs": [
        {
          "indexed": true,
          "internalType": "address",
          "name": "account",
          "type": "address"
        },
        {
          "indexed": true,
          "internalType": "uint256",
          "name": "amount",
          "type": "uint256"
        }
      ],
      "name": "USDCDeposited",
      "type": "event"
    },
    {
      "anonymous": false,
      "inputs": [
        {
          "indexed": true,
          "internalType": "address",
          "name": "account",
          "type": "address"
        },
        {
          "indexed": true,
          "internalType": "uint256",
          "name": "amount",
          "type": "uint256"
        }
      ],
      "name": "USDCWithdrawed",
      "type": "event"
    },
    {
      "inputs": [
        {
          "internalType": "address",
          "name": "owner",
          "type": "address"
        },
        {
          "internalType": "address",
          "name": "spender",
          "type": "address"
        }
      ],
      "name": "allowance",
      "outputs": [
        {
          "internalType": "uint256",
          "name": "",
          "type": "uint256"
        }
      ],
      "stateMutability": "view",
      "type": "function"
    },
    {
      "inputs": [],
      "name": "ambBridge",
      "outputs": [
        {
          "internalType": "contract IAMB",
          "name": "",
          "type": "address"
        }
      ],
      "stateMutability": "view",
      "type": "function"
    },
    {
      "inputs": [
        {
          "internalType": "address",
          "name": "spender",
          "type": "address"
        },
        {
          "internalType": "uint256",
          "name": "amount",
          "type": "uint256"
        }
      ],
      "name": "approve",
      "outputs": [
        {
          "internalType": "bool",
          "name": "",
          "type": "bool"
        }
      ],
      "stateMutability": "nonpayable",
      "type": "function"
    },
    {
      "inputs": [
        {
          "internalType": "address",
          "name": "account",
          "type": "address"
        }
      ],
      "name": "balanceOf",
      "outputs": [
        {
          "internalType": "uint256",
          "name": "",
          "type": "uint256"
        }
      ],
      "stateMutability": "view",
      "type": "function"
    },
    {
      "inputs": [],
      "name": "collateral",
      "outputs": [
        {
          "internalType": "contract IERC20",
          "name": "",
          "type": "address"
        }
      ],
      "stateMutability": "view",
      "type": "function"
    },
    {
      "inputs": [],
      "name": "decimals",
      "outputs": [
        {
          "internalType": "uint8",
          "name": "",
          "type": "uint8"
        }
      ],
      "stateMutability": "view",
      "type": "function"
    },
    {
      "inputs": [
        {
          "internalType": "address",
          "name": "spender",
          "type": "address"
        },
        {
          "internalType": "uint256",
          "name": "subtractedValue",
          "type": "uint256"
        }
      ],
      "name": "decreaseAllowance",
      "outputs": [
        {
          "internalType": "bool",
          "name": "",
          "type": "bool"
        }
      ],
      "stateMutability": "nonpayable",
      "type": "function"
    },
    {
      "inputs": [
        {
          "internalType": "address",
          "name": "",
          "type": "address"
        }
      ],
      "name": "depositInfo",
      "outputs": [
        {
          "internalType": "uint256",
          "name": "",
          "type": "uint256"
        }
      ],
      "stateMutability": "view",
      "type": "function"
    },
    {
      "inputs": [],
      "name": "gasLimit",
      "outputs": [
        {
          "internalType": "uint256",
          "name": "",
          "type": "uint256"
        }
      ],
      "stateMutability": "view",
      "type": "function"
    },
    {
      "inputs": [
        {
          "internalType": "address",
          "name": "spender",
          "type": "address"
        },
        {
          "internalType": "uint256",
          "name": "addedValue",
          "type": "uint256"
        }
      ],
      "name": "increaseAllowance",
      "outputs": [
        {
          "internalType": "bool",
          "name": "",
          "type": "bool"
        }
      ],
      "stateMutability": "nonpayable",
      "type": "function"
    },
    {
      "inputs": [
        {
          "internalType": "contract IERC20",
          "name": "_collateral",
          "type": "address"
        },
        {
          "internalType": "contract IPerpetualProtocol",
          "name": "_perpetualProtocol",
          "type": "address"
        },
        {
          "internalType": "contract IAMB",
          "name": "_ambBridge",
          "type": "address"
        },
        {
          "internalType": "contract IMultiTokenMediator",
          "name": "_multiTokenMediator",
          "type": "address"
        },
        {
          "internalType": "address",
          "name": "trustedForwarder",
          "type": "address"
        }
      ],
      "name": "initialize",
      "outputs": [],
      "stateMutability": "nonpayable",
      "type": "function"
    },
    {
      "inputs": [
        {
          "internalType": "address",
          "name": "forwarder",
          "type": "address"
        }
      ],
      "name": "isTrustedForwarder",
      "outputs": [
        {
          "internalType": "bool",
          "name": "",
          "type": "bool"
        }
      ],
      "stateMutability": "view",
      "type": "function"
    },
    {
      "inputs": [],
      "name": "lemmaMainnet",
      "outputs": [
        {
          "internalType": "contract ILemmaMainnet",
          "name": "",
          "type": "address"
        }
      ],
      "stateMutability": "view",
      "type": "function"
    },
    {
      "inputs": [
        {
          "internalType": "address",
          "name": "_account",
          "type": "address"
        }
      ],
      "name": "mint",
      "outputs": [],
      "stateMutability": "nonpayable",
      "type": "function"
    },
    {
      "inputs": [],
      "name": "multiTokenMediator",
      "outputs": [
        {
          "internalType": "contract IMultiTokenMediator",
          "name": "",
          "type": "address"
        }
      ],
      "stateMutability": "view",
      "type": "function"
    },
    {
      "inputs": [],
      "name": "name",
      "outputs": [
        {
          "internalType": "string",
          "name": "",
          "type": "string"
        }
      ],
      "stateMutability": "view",
      "type": "function"
    },
    {
      "inputs": [
        {
          "internalType": "address",
          "name": "from",
          "type": "address"
        },
        {
          "internalType": "uint256",
          "name": "amount",
          "type": "uint256"
        },
        {
          "internalType": "bytes",
          "name": "data",
          "type": "bytes"
        }
      ],
      "name": "onTokenTransfer",
      "outputs": [
        {
          "internalType": "bool",
          "name": "",
          "type": "bool"
        }
      ],
      "stateMutability": "nonpayable",
      "type": "function"
    },
    {
      "inputs": [],
      "name": "owner",
      "outputs": [
        {
          "internalType": "address",
          "name": "",
          "type": "address"
        }
      ],
      "stateMutability": "view",
      "type": "function"
    },
    {
      "inputs": [],
      "name": "perpetualProtocol",
      "outputs": [
        {
          "internalType": "contract IPerpetualProtocol",
          "name": "",
          "type": "address"
        }
      ],
      "stateMutability": "view",
      "type": "function"
    },
    {
      "inputs": [],
      "name": "renounceOwnership",
      "outputs": [],
      "stateMutability": "nonpayable",
      "type": "function"
    },
    {
      "inputs": [
        {
          "internalType": "address",
          "name": "_account",
          "type": "address"
        },
        {
          "internalType": "uint256",
          "name": "_amount",
          "type": "uint256"
        }
      ],
      "name": "setDepositInfo",
      "outputs": [],
      "stateMutability": "nonpayable",
      "type": "function"
    },
    {
      "inputs": [
        {
          "internalType": "uint256",
          "name": "_gasLimit",
          "type": "uint256"
        }
      ],
      "name": "setGasLimit",
      "outputs": [],
      "stateMutability": "nonpayable",
      "type": "function"
    },
    {
      "inputs": [
        {
          "internalType": "contract ILemmaMainnet",
          "name": "_lemmaMainnet",
          "type": "address"
        }
      ],
      "name": "setLemmaMainnet",
      "outputs": [],
      "stateMutability": "nonpayable",
      "type": "function"
    },
    {
      "inputs": [],
      "name": "symbol",
      "outputs": [
        {
          "internalType": "string",
          "name": "",
          "type": "string"
        }
      ],
      "stateMutability": "view",
      "type": "function"
    },
    {
      "inputs": [],
      "name": "totalSupply",
      "outputs": [
        {
          "internalType": "uint256",
          "name": "",
          "type": "uint256"
        }
      ],
      "stateMutability": "view",
      "type": "function"
    },
    {
      "inputs": [
        {
          "internalType": "address",
          "name": "recipient",
          "type": "address"
        },
        {
          "internalType": "uint256",
          "name": "amount",
          "type": "uint256"
        }
      ],
      "name": "transfer",
      "outputs": [
        {
          "internalType": "bool",
          "name": "",
          "type": "bool"
        }
      ],
      "stateMutability": "nonpayable",
      "type": "function"
    },
    {
      "inputs": [
        {
          "internalType": "address",
          "name": "sender",
          "type": "address"
        },
        {
          "internalType": "address",
          "name": "recipient",
          "type": "address"
        },
        {
          "internalType": "uint256",
          "name": "amount",
          "type": "uint256"
        }
      ],
      "name": "transferFrom",
      "outputs": [
        {
          "internalType": "bool",
          "name": "",
          "type": "bool"
        }
      ],
      "stateMutability": "nonpayable",
      "type": "function"
    },
    {
      "inputs": [
        {
          "internalType": "address",
          "name": "newOwner",
          "type": "address"
        }
      ],
      "name": "transferOwnership",
      "outputs": [],
      "stateMutability": "nonpayable",
      "type": "function"
    },
    {
      "inputs": [
        {
          "internalType": "uint256",
          "name": "_amount",
          "type": "uint256"
        },
        {
          "internalType": "uint256",
          "name": "_minETHOut",
          "type": "uint256"
        }
      ],
      "name": "withdraw",
      "outputs": [],
      "stateMutability": "nonpayable",
      "type": "function"
    }
  ],
  "bytecode": "0x608060405234801561001057600080fd5b506123dd806100206000396000f3fe608060405234801561001057600080fd5b50600436106101cf5760003560e01c80636344598911610104578063a457c2d7116100a2578063dd62ed3e11610071578063dd62ed3e146103fe578063ee7d72b414610437578063f2fde38b1461044a578063f68016b71461045d576101cf565b8063a457c2d7146103ad578063a4c0ed36146103c0578063a9059cbb146103d8578063d8dfeb45146103eb576101cf565b806370a08231116100de57806370a0823114610363578063715018a61461038c5780638da5cb5b1461039457806395d89b41146103a5576101cf565b8063634459891461031d57806368981a3a1461033d5780636a62784214610350576101cf565b8063313ce56711610171578063441a3e701161014b578063441a3e70146102c257806347c25ce9146102d55780634ce0d821146102e8578063572b6c05146102fb576101cf565b8063313ce5671461028d57806336bb10d81461029c57806339509351146102af576101cf565b80630ba54df6116101ad5780630ba54df61461022a5780631459457a1461025557806318160ddd1461026857806323b872dd1461027a576101cf565b806306fdde03146101d457806309094aa6146101f2578063095ea7b314610207575b600080fd5b6101dc610466565b6040516101e9919061220d565b60405180910390f35b610205610200366004612001565b6104f9565b005b61021a610215366004612001565b61074e565b60405190151581526020016101e9565b60cc5461023d906001600160a01b031681565b6040516001600160a01b0390911681526020016101e9565b6102056102633660046120e8565b61076b565b6035545b6040519081526020016101e9565b61021a610288366004611fc1565b610886565b604051601281526020016101e9565b60ce5461023d906001600160a01b031681565b61021a6102bd366004612001565b610960565b6102056102d0366004612170565b6109af565b60cb5461023d906001600160a01b031681565b6102056102f6366004611f51565b610bcc565b61021a610309366004611f51565b6097546001600160a01b0390811691161490565b61026c61032b366004611f51565b60d06020526000908152604090205481565b60cd5461023d906001600160a01b031681565b61020561035e366004611f51565b610c37565b61026c610371366004611f51565b6001600160a01b031660009081526033602052604090205490565b610205610dff565b6065546001600160a01b031661023d565b6101dc610e92565b61021a6103bb366004612001565b610ea1565b61021a6103ce36600461202c565b6000949350505050565b61021a6103e6366004612001565b610f5a565b60ca5461023d906001600160a01b031681565b61026c61040c366004611f89565b6001600160a01b03918216600090815260346020908152604080832093909416825291909152205490565b610205610445366004612158565b610f6e565b610205610458366004611f51565b610fbc565b61026c60cf5481565b60606036805461047590612341565b80601f01602080910402602001604051908101604052809291908181526020018280546104a190612341565b80156104ee5780601f106104c3576101008083540402835291602001916104ee565b820191906000526020600020905b8154815290600101906020018083116104d157829003601f168201915b505050505090505b90565b60cc546001600160a01b031661050d6110c6565b6001600160a01b0316146105585760405162461bcd60e51b815260206004820152600d60248201526c6e6f7420616d6242726964676560981b60448201526064015b60405180910390fd5b60ce5460cc546040805163d67bdd2560e01b815290516001600160a01b03938416939092169163d67bdd2591600480820192602092909190829003018186803b1580156105a457600080fd5b505afa1580156105b8573d6000803e3d6000fd5b505050506040513d601f19601f820116820180604052508101906105dc9190611f6d565b6001600160a01b0316146106485760405162461bcd60e51b815260206004820152602d60248201527f616d624272696467652773206d65737361676553656e646572206973206e6f7460448201526c081b195b5b5853585a5b9b995d609a1b606482015260840161054f565b6001600160a01b038216600090815260d06020526040812080548392906106709084906122a3565b909155505060405181906001600160a01b038416907f258c1a27feacd8cf5c66ca239e7cb5dfe8b6668ef7a881673ef13581cbf6f5ee90600090a36001600160a01b03828116600090815260d06020526040908190205460ca5491516370a0823160e01b8152306004820152909291909116906370a082319060240160206040518083038186803b15801561070457600080fd5b505afa158015610718573d6000803e3d6000fd5b505050506040513d601f19601f8201168201806040525081019061073c91906120d0565b1061074a5761074a82610c37565b5050565b600061076261075b6110c6565b84846110d5565b50600192915050565b600054610100900460ff1680610784575060005460ff16155b6107a05760405162461bcd60e51b815260040161054f90612220565b600054610100900460ff161580156107c2576000805461ffff19166101011790555b6107ca6111fa565b6108126040518060400160405280600981526020016813195b5b585554d11560ba1b81525060405180604001604052806005815260200164131554d11560da1b815250611276565b61081b826112f6565b60ca80546001600160a01b038089166001600160a01b03199283161790925560cb805488841690831617905560cc805487841690831617905560cd805492861692909116919091179055620f424060cf55801561087e576000805461ff00191690555b505050505050565b6000610893848484611373565b6001600160a01b0384166000908152603460205260408120816108b46110c6565b6001600160a01b03166001600160a01b03168152602001908152602001600020549050828110156109385760405162461bcd60e51b815260206004820152602860248201527f45524332303a207472616e7366657220616d6f756e74206578636565647320616044820152676c6c6f77616e636560c01b606482015260840161054f565b610953856109446110c6565b61094e86856122fa565b6110d5565b60019150505b9392505050565b600061076261096d6110c6565b84846034600061097b6110c6565b6001600160a01b03908116825260208083019390935260409182016000908120918b168152925290205461094e91906122a3565b60006109ba60355490565b60cb5460408051630d6eb59160e41b8152905186926001600160a01b03169163d6eb5910916004808301926020929190829003018186803b1580156109fe57600080fd5b505afa158015610a12573d6000803e3d6000fd5b505050506040513d601f19601f82011682018060405250810190610a3691906120d0565b610a4091906122db565b610a4a91906122bb565b9050610a5d610a576110c6565b8461154b565b60cb54604051630575f5a760e11b8152600481018390526000916001600160a01b031690630aebeb4e90602401602060405180830381600087803b158015610aa457600080fd5b505af1158015610ab8573d6000803e3d6000fd5b505050506040513d601f19601f82011682018060405250810190610adc91906120d0565b60ca5460ce54919250610afc916001600160a01b0391821691168361169a565b6353fbc09b60e01b600081610b0f6110c6565b6040516001600160a01b039091166024820152604481018590526064810187905260840160408051601f198184030181529190526020810180516001600160e01b03166001600160e01b03199093169290921790915260ce5460cf54919250610b85916001600160a01b03909116908390611771565b5082610b8f6110c6565b6001600160a01b03167fce6a88f95a8d322c08c27a31690ee58c2d068c30e2931ad8881b9d9cfff5713560405160405180910390a3505050505050565b610bd46110c6565b6001600160a01b0316610bef6065546001600160a01b031690565b6001600160a01b031614610c155760405162461bcd60e51b815260040161054f9061226e565b60ce80546001600160a01b0319166001600160a01b0392909216919091179055565b6001600160a01b03808216600090815260d060205260408120805491905560cb5460ca549192610c6b928116911683611800565b60cb5460405163690e7c0960e01b8152600481018390526000916001600160a01b03169063690e7c0990602401602060405180830381600087803b158015610cb257600080fd5b505af1158015610cc6573d6000803e3d6000fd5b505050506040513d601f19601f82011682018060405250810190610cea91906120d0565b90506000610cf760355490565b15610da75760cb60009054906101000a90046001600160a01b03166001600160a01b031663d6eb59106040518163ffffffff1660e01b815260040160206040518083038186803b158015610d4a57600080fd5b505afa158015610d5e573d6000803e3d6000fd5b505050506040513d601f19601f82011682018060405250810190610d8291906120d0565b82610d8c60355490565b610d9691906122db565b610da091906122bb565b9050610db9565b610db68264e8d4a510006122db565b90505b610dc38482611863565b60405182906001600160a01b038616907f80ecc532cf2e08856601df42646970d676a686d8eeacbfd2038fae4ff288da5690600090a350505050565b610e076110c6565b6001600160a01b0316610e226065546001600160a01b031690565b6001600160a01b031614610e485760405162461bcd60e51b815260040161054f9061226e565b6065546040516000916001600160a01b0316907f8be0079c531659141344cd1fd0a4f28419497f9722a3daafe3b4186f6b6457e0908390a3606580546001600160a01b0319169055565b60606037805461047590612341565b60008060346000610eb06110c6565b6001600160a01b0390811682526020808301939093526040918201600090812091881681529252902054905082811015610f3a5760405162461bcd60e51b815260206004820152602560248201527f45524332303a2064656372656173656420616c6c6f77616e63652062656c6f77604482015264207a65726f60d81b606482015260840161054f565b610f50610f456110c6565b8561094e86856122fa565b5060019392505050565b6000610762610f676110c6565b8484611373565b610f766110c6565b6001600160a01b0316610f916065546001600160a01b031690565b6001600160a01b031614610fb75760405162461bcd60e51b815260040161054f9061226e565b60cf55565b610fc46110c6565b6001600160a01b0316610fdf6065546001600160a01b031690565b6001600160a01b0316146110055760405162461bcd60e51b815260040161054f9061226e565b6001600160a01b03811661106a5760405162461bcd60e51b815260206004820152602660248201527f4f776e61626c653a206e6577206f776e657220697320746865207a65726f206160448201526564647265737360d01b606482015260840161054f565b6065546040516001600160a01b038084169216907f8be0079c531659141344cd1fd0a4f28419497f9722a3daafe3b4186f6b6457e090600090a3606580546001600160a01b0319166001600160a01b0392909216919091179055565b60006110d0611942565b905090565b6001600160a01b0383166111375760405162461bcd60e51b8152602060048201526024808201527f45524332303a20617070726f76652066726f6d20746865207a65726f206164646044820152637265737360e01b606482015260840161054f565b6001600160a01b0382166111985760405162461bcd60e51b815260206004820152602260248201527f45524332303a20617070726f766520746f20746865207a65726f206164647265604482015261737360f01b606482015260840161054f565b6001600160a01b0383811660008181526034602090815260408083209487168084529482529182902085905590518481527f8c5be1e5ebec7d5bd14f71427d1e84f3dd0314c0f7b2291e5b200ac8c7c3b92591015b60405180910390a3505050565b600054610100900460ff1680611213575060005460ff16155b61122f5760405162461bcd60e51b815260040161054f90612220565b600054610100900460ff16158015611251576000805461ffff19166101011790555b61125961196e565b6112616119d8565b8015611273576000805461ff00191690555b50565b600054610100900460ff168061128f575060005460ff16155b6112ab5760405162461bcd60e51b815260040161054f90612220565b600054610100900460ff161580156112cd576000805461ffff19166101011790555b6112d561196e565b6112df8383611a9b565b80156112f1576000805461ff00191690555b505050565b600054610100900460ff168061130f575060005460ff16155b61132b5760405162461bcd60e51b815260040161054f90612220565b600054610100900460ff1615801561134d576000805461ffff19166101011790555b61135561196e565b61135e82611b30565b801561074a576000805461ff00191690555050565b6001600160a01b0383166113d75760405162461bcd60e51b815260206004820152602560248201527f45524332303a207472616e736665722066726f6d20746865207a65726f206164604482015264647265737360d81b606482015260840161054f565b6001600160a01b0382166114395760405162461bcd60e51b815260206004820152602360248201527f45524332303a207472616e7366657220746f20746865207a65726f206164647260448201526265737360e81b606482015260840161054f565b6001600160a01b038316600090815260336020526040902054818110156114b15760405162461bcd60e51b815260206004820152602660248201527f45524332303a207472616e7366657220616d6f756e7420657863656564732062604482015265616c616e636560d01b606482015260840161054f565b6114bb82826122fa565b6001600160a01b0380861660009081526033602052604080822093909355908516815290812080548492906114f19084906122a3565b92505081905550826001600160a01b0316846001600160a01b03167fddf252ad1be2c89b69c2b068fc378daa952ba7f163c4a11628f55a4df523b3ef8460405161153d91815260200190565b60405180910390a350505050565b6001600160a01b0382166115ab5760405162461bcd60e51b815260206004820152602160248201527f45524332303a206275726e2066726f6d20746865207a65726f206164647265736044820152607360f81b606482015260840161054f565b6001600160a01b0382166000908152603360205260409020548181101561161f5760405162461bcd60e51b815260206004820152602260248201527f45524332303a206275726e20616d6f756e7420657863656564732062616c616e604482015261636560f01b606482015260840161054f565b61162982826122fa565b6001600160a01b038416600090815260336020526040812091909155603580548492906116579084906122fa565b90915550506040518281526000906001600160a01b038516907fddf252ad1be2c89b69c2b068fc378daa952ba7f163c4a11628f55a4df523b3ef906020016111ed565b6001600160a01b0382166116e45760405162461bcd60e51b8152602060048201526011602482015270726563656976657220697320656d70747960781b604482015260640161054f565b60cd546116fe906001600160a01b03858116911683611bb7565b60cd5460405163ad58bdd160e01b81526001600160a01b0385811660048301528481166024830152604482018490529091169063ad58bdd190606401600060405180830381600087803b15801561175457600080fd5b505af1158015611768573d6000803e3d6000fd5b50505050505050565b60cc5460405163dc8601b360e01b81526000916001600160a01b03169063dc8601b3906117a6908790879087906004016121d9565b602060405180830381600087803b1580156117c057600080fd5b505af11580156117d4573d6000803e3d6000fd5b505050506040513d601f19601f820116820180604052508101906117f891906120d0565b949350505050565b6040516001600160a01b0383166024820152604481018290526112f190849063a9059cbb60e01b906064015b60408051601f198184030181529190526020810180516001600160e01b03166001600160e01b031990931692909217909152611cdb565b6001600160a01b0382166118b95760405162461bcd60e51b815260206004820152601f60248201527f45524332303a206d696e7420746f20746865207a65726f206164647265737300604482015260640161054f565b80603560008282546118cb91906122a3565b90915550506001600160a01b038216600090815260336020526040812080548392906118f89084906122a3565b90915550506040518181526001600160a01b038316906000907fddf252ad1be2c89b69c2b068fc378daa952ba7f163c4a11628f55a4df523b3ef9060200160405180910390a35050565b6097546000906001600160a01b0316331415611967575060131936013560601c6104f6565b50336104f6565b600054610100900460ff1680611987575060005460ff16155b6119a35760405162461bcd60e51b815260040161054f90612220565b600054610100900460ff16158015611261576000805461ffff19166101011790558015611273576000805461ff001916905550565b600054610100900460ff16806119f1575060005460ff16155b611a0d5760405162461bcd60e51b815260040161054f90612220565b600054610100900460ff16158015611a2f576000805461ffff19166101011790555b6000611a396110c6565b606580546001600160a01b0319166001600160a01b038316908117909155604051919250906000907f8be0079c531659141344cd1fd0a4f28419497f9722a3daafe3b4186f6b6457e0908290a3508015611273576000805461ff001916905550565b600054610100900460ff1680611ab4575060005460ff16155b611ad05760405162461bcd60e51b815260040161054f90612220565b600054610100900460ff16158015611af2576000805461ffff19166101011790555b8251611b05906036906020860190611eb8565b508151611b19906037906020850190611eb8565b5080156112f1576000805461ff0019169055505050565b600054610100900460ff1680611b49575060005460ff16155b611b655760405162461bcd60e51b815260040161054f90612220565b600054610100900460ff16158015611b87576000805461ffff19166101011790555b609780546001600160a01b0319166001600160a01b038416179055801561074a576000805461ff00191690555050565b801580611c405750604051636eb1769f60e11b81523060048201526001600160a01b03838116602483015284169063dd62ed3e9060440160206040518083038186803b158015611c0657600080fd5b505afa158015611c1a573d6000803e3d6000fd5b505050506040513d601f19601f82011682018060405250810190611c3e91906120d0565b155b611cab5760405162461bcd60e51b815260206004820152603660248201527f5361666545524332303a20617070726f76652066726f6d206e6f6e2d7a65726f60448201527520746f206e6f6e2d7a65726f20616c6c6f77616e636560501b606482015260840161054f565b6040516001600160a01b0383166024820152604481018290526112f190849063095ea7b360e01b9060640161182c565b6000611d30826040518060400160405280602081526020017f5361666545524332303a206c6f772d6c6576656c2063616c6c206661696c6564815250856001600160a01b0316611dad9092919063ffffffff16565b8051909150156112f15780806020019051810190611d4e91906120b0565b6112f15760405162461bcd60e51b815260206004820152602a60248201527f5361666545524332303a204552433230206f7065726174696f6e20646964206e6044820152691bdd081cdd58d8d9595960b21b606482015260840161054f565b60606117f8848460008585843b611e065760405162461bcd60e51b815260206004820152601d60248201527f416464726573733a2063616c6c20746f206e6f6e2d636f6e7472616374000000604482015260640161054f565b600080866001600160a01b03168587604051611e2291906121bd565b60006040518083038185875af1925050503d8060008114611e5f576040519150601f19603f3d011682016040523d82523d6000602084013e611e64565b606091505b5091509150611e74828286611e7f565b979650505050505050565b60608315611e8e575081610959565b825115611e9e5782518084602001fd5b8160405162461bcd60e51b815260040161054f919061220d565b828054611ec490612341565b90600052602060002090601f016020900481019282611ee65760008555611f2c565b82601f10611eff57805160ff1916838001178555611f2c565b82800160010185558215611f2c579182015b82811115611f2c578251825591602001919060010190611f11565b50611f38929150611f3c565b5090565b5b80821115611f385760008155600101611f3d565b600060208284031215611f62578081fd5b813561095981612392565b600060208284031215611f7e578081fd5b815161095981612392565b60008060408385031215611f9b578081fd5b8235611fa681612392565b91506020830135611fb681612392565b809150509250929050565b600080600060608486031215611fd5578081fd5b8335611fe081612392565b92506020840135611ff081612392565b929592945050506040919091013590565b60008060408385031215612013578182fd5b823561201e81612392565b946020939093013593505050565b60008060008060608587031215612041578081fd5b843561204c81612392565b935060208501359250604085013567ffffffffffffffff8082111561206f578283fd5b818701915087601f830112612082578283fd5b813581811115612090578384fd5b8860208285010111156120a1578384fd5b95989497505060200194505050565b6000602082840312156120c1578081fd5b81518015158114610959578182fd5b6000602082840312156120e1578081fd5b5051919050565b600080600080600060a086880312156120ff578081fd5b853561210a81612392565b9450602086013561211a81612392565b9350604086013561212a81612392565b9250606086013561213a81612392565b9150608086013561214a81612392565b809150509295509295909350565b600060208284031215612169578081fd5b5035919050565b60008060408385031215612182578182fd5b50508035926020909101359150565b600081518084526121a9816020860160208601612311565b601f01601f19169290920160200192915050565b600082516121cf818460208701612311565b9190910192915050565b6001600160a01b03841681526060602082018190526000906121fd90830185612191565b9050826040830152949350505050565b6000602082526109596020830184612191565b6020808252602e908201527f496e697469616c697a61626c653a20636f6e747261637420697320616c72656160408201526d191e481a5b9a5d1a585b1a5e995960921b606082015260800190565b6020808252818101527f4f776e61626c653a2063616c6c6572206973206e6f7420746865206f776e6572604082015260600190565b600082198211156122b6576122b661237c565b500190565b6000826122d657634e487b7160e01b81526012600452602481fd5b500490565b60008160001904831182151516156122f5576122f561237c565b500290565b60008282101561230c5761230c61237c565b500390565b60005b8381101561232c578181015183820152602001612314565b8381111561233b576000848401525b50505050565b600181811c9082168061235557607f821691505b6020821081141561237657634e487b7160e01b600052602260045260246000fd5b50919050565b634e487b7160e01b600052601160045260246000fd5b6001600160a01b038116811461127357600080fdfea2646970667358221220777d2da5cda56c187202b2c03a4bd8ca26e693f880fff5ba2f16bce17ddb215964736f6c63430008030033",
  "linkReferences": {},
  "deployedLinkReferences": {}
}