{
  "_format": "hh-sol-artifact-1",
  "contractName": "LemmaMainnet",
  "sourceName": "contracts/LemmaMainnet.sol",
  "abi": [
    {
      "anonymous": false,
      "inputs": [
        {
          "indexed": true,
          "internalType": "address",
          "name": "previousOwner",
          "type": "address"
        },
        {
          "indexed": true,
          "internalType": "address",
          "name": "newOwner",
          "type": "address"
        }
      ],
      "name": "OwnershipTransferred",
      "type": "event"
    },
    {
      "anonymous": false,
      "inputs": [
        {
          "indexed": true,
          "internalType": "address",
          "name": "account",
          "type": "address"
        },
        {
          "indexed": true,
          "internalType": "uint256",
          "name": "amount",
          "type": "uint256"
        }
      ],
      "name": "WithdrawalInfoAdded",
      "type": "event"
    },
    {
      "inputs": [],
      "name": "USDC",
      "outputs": [
        {
          "internalType": "contract IERC20",
          "name": "",
          "type": "address"
        }
      ],
      "stateMutability": "view",
      "type": "function"
    },
    {
      "inputs": [],
      "name": "WETH",
      "outputs": [
        {
          "internalType": "contract IERC20",
          "name": "",
          "type": "address"
        }
      ],
      "stateMutability": "view",
      "type": "function"
    },
    {
      "inputs": [],
      "name": "ambBridge",
      "outputs": [
        {
          "internalType": "contract IAMB",
          "name": "",
          "type": "address"
        }
      ],
      "stateMutability": "view",
      "type": "function"
    },
    {
      "inputs": [
        {
          "internalType": "uint256",
          "name": "_minimumUSDCAmountOut",
          "type": "uint256"
        }
      ],
      "name": "deposit",
      "outputs": [],
      "stateMutability": "payable",
      "type": "function"
    },
    {
      "inputs": [],
      "name": "gasLimit",
      "outputs": [
        {
          "internalType": "uint256",
          "name": "",
          "type": "uint256"
        }
      ],
      "stateMutability": "view",
      "type": "function"
    },
    {
      "inputs": [
        {
          "internalType": "contract IERC20",
          "name": "_USDC",
          "type": "address"
        },
        {
          "internalType": "contract IERC20",
          "name": "_WETH",
          "type": "address"
        },
        {
          "internalType": "contract ILemmaxDAI",
          "name": "_lemmaXDAI",
          "type": "address"
        },
        {
          "internalType": "contract IUniswapV2Router02",
          "name": "_uniswapV2Router02",
          "type": "address"
        },
        {
          "internalType": "contract IAMB",
          "name": "_ambBridge",
          "type": "address"
        },
        {
          "internalType": "contract IMultiTokenMediator",
          "name": "_multiTokenMediator",
          "type": "address"
        },
        {
          "internalType": "address",
          "name": "trustedForwarder",
          "type": "address"
        }
      ],
      "name": "initialize",
      "outputs": [],
      "stateMutability": "nonpayable",
      "type": "function"
    },
    {
      "inputs": [
        {
          "internalType": "address",
          "name": "forwarder",
          "type": "address"
        }
      ],
      "name": "isTrustedForwarder",
      "outputs": [
        {
          "internalType": "bool",
          "name": "",
          "type": "bool"
        }
      ],
      "stateMutability": "view",
      "type": "function"
    },
    {
      "inputs": [],
      "name": "lemmaXDAI",
      "outputs": [
        {
          "internalType": "contract ILemmaxDAI",
          "name": "",
          "type": "address"
        }
      ],
      "stateMutability": "view",
      "type": "function"
    },
    {
      "inputs": [],
      "name": "multiTokenMediator",
      "outputs": [
        {
          "internalType": "contract IMultiTokenMediator",
          "name": "",
          "type": "address"
        }
      ],
      "stateMutability": "view",
      "type": "function"
    },
    {
      "inputs": [],
      "name": "owner",
      "outputs": [
        {
          "internalType": "address",
          "name": "",
          "type": "address"
        }
      ],
      "stateMutability": "view",
      "type": "function"
    },
    {
      "inputs": [],
      "name": "renounceOwnership",
      "outputs": [],
      "stateMutability": "nonpayable",
      "type": "function"
    },
    {
      "inputs": [
        {
          "internalType": "uint256",
          "name": "_gasLimit",
          "type": "uint256"
        }
      ],
      "name": "setGasLimit",
      "outputs": [],
      "stateMutability": "nonpayable",
      "type": "function"
    },
    {
      "inputs": [
        {
          "internalType": "address",
          "name": "_account",
          "type": "address"
        },
        {
          "internalType": "uint256",
          "name": "_amount",
          "type": "uint256"
        }
      ],
      "name": "setWithdrawalInfo",
      "outputs": [],
      "stateMutability": "nonpayable",
      "type": "function"
    },
    {
      "inputs": [],
      "name": "totalUSDCDeposited",
      "outputs": [
        {
          "internalType": "uint256",
          "name": "",
          "type": "uint256"
        }
      ],
      "stateMutability": "view",
      "type": "function"
    },
    {
      "inputs": [
        {
          "internalType": "address",
          "name": "newOwner",
          "type": "address"
        }
      ],
      "name": "transferOwnership",
      "outputs": [],
      "stateMutability": "nonpayable",
      "type": "function"
    },
    {
      "inputs": [],
      "name": "uniswapV2Router02",
      "outputs": [
        {
          "internalType": "contract IUniswapV2Router02",
          "name": "",
          "type": "address"
        }
      ],
      "stateMutability": "view",
      "type": "function"
    },
    {
      "inputs": [
        {
          "internalType": "address",
          "name": "_account",
          "type": "address"
        }
      ],
      "name": "withdraw",
      "outputs": [],
      "stateMutability": "nonpayable",
      "type": "function"
    },
    {
      "inputs": [
        {
          "internalType": "address",
          "name": "",
          "type": "address"
        }
      ],
      "name": "withdrawalInfo",
      "outputs": [
        {
          "internalType": "uint256",
          "name": "",
          "type": "uint256"
        }
      ],
      "stateMutability": "view",
      "type": "function"
    }
  ],
  "bytecode": "0x608060405234801561001057600080fd5b506117b0806100206000396000f3fe6080604052600436106101095760003560e01c8063a7c6402c11610095578063d0ba5a7311610064578063d0ba5a73146102e4578063dec4a2f2146102fa578063ee7d72b41461031a578063f2fde38b1461033a578063f68016b71461035a57610109565b8063a7c6402c14610256578063ad5c464814610276578063b6b55f2514610296578063ba24941c146102a957610109565b8063572b6c05116100dc578063572b6c05146101ad57806368981a3a146101ec578063715018a61461020c57806389a30271146102215780638da5cb5b1461024157610109565b80630ba54df61461010e578063358764761461014b5780634e17b64c1461016d57806351cff8d91461018d575b600080fd5b34801561011a57600080fd5b5060985461012e906001600160a01b031681565b6040516001600160a01b0390911681526020015b60405180910390f35b34801561015757600080fd5b5061016b6101663660046114b0565b610370565b005b34801561017957600080fd5b5061016b61018836600461138d565b610466565b34801561019957600080fd5b5061016b6101a8366004611355565b6105f4565b3480156101b957600080fd5b506101dc6101c8366004611355565b6065546001600160a01b0390811691161490565b6040519015158152602001610142565b3480156101f857600080fd5b5060995461012e906001600160a01b031681565b34801561021857600080fd5b5061016b610765565b34801561022d57600080fd5b50609c5461012e906001600160a01b031681565b34801561024d57600080fd5b5061012e6107ee565b34801561026257600080fd5b50609e5461012e906001600160a01b031681565b34801561028257600080fd5b50609d5461012e906001600160a01b031681565b61016b6102a4366004611545565b6107fe565b3480156102b557600080fd5b506102d66102c4366004611355565b609f6020526000908152604090205481565b604051908152602001610142565b3480156102f057600080fd5b506102d660a05481565b34801561030657600080fd5b50609a5461012e906001600160a01b031681565b34801561032657600080fd5b5061016b610335366004611545565b610a2f565b34801561034657600080fd5b5061016b610355366004611355565b610a73565b34801561036657600080fd5b506102d6609b5481565b600054610100900460ff1680610389575060005460ff16155b6103ae5760405162461bcd60e51b81526004016103a59061162f565b60405180910390fd5b600054610100900460ff161580156103d0576000805461ffff19166101011790555b6103d8610b73565b6103e182610bef565b609c80546001600160a01b03199081166001600160a01b038b811691909117909255609d805482168a8416179055609a80548216898416179055609e8054821688841617905560988054821687841617905560998054909116918516919091179055620f4240609b55801561045c576000805461ff00191690555b5050505050505050565b6098546001600160a01b031661047a610c6c565b6001600160a01b03161461048d57600080fd5b609a546098546040805163d67bdd2560e01b815290516001600160a01b03938416939092169163d67bdd2591600480820192602092909190829003018186803b1580156104d957600080fd5b505afa1580156104ed573d6000803e3d6000fd5b505050506040513d601f19601f820116820180604052508101906105119190611371565b6001600160a01b03161461052457600080fd5b6001600160a01b0382166000818152609f6020526040808220849055518392917f283ccb186d2158a2a3df1d3934d74a42589ed49c4a69081b6daa558b3040c85f91a3609c546040516370a0823160e01b815230600482015282916001600160a01b0316906370a082319060240160206040518083038186803b1580156105aa57600080fd5b505afa1580156105be573d6000803e3d6000fd5b505050506040513d601f19601f820116820180604052508101906105e29190611498565b106105f0576105f0826105f4565b5050565b6001600160a01b0381166000908152609f602052604080822080549083905581516002808252606082019093529092918160200160208202803683375050609c5482519293506001600160a01b03169183915060009061066457634e487b7160e01b600052603260045260246000fd5b6001600160a01b039283166020918202929092010152609d548251911690829060019081106106a357634e487b7160e01b600052603260045260246000fd5b6001600160a01b039283166020918202929092010152609e54609c546106ce92908116911684610c7b565b609e546040516318cbafe560e01b81526001600160a01b03909116906318cbafe59061070990859060009086908990600019906004016116e7565b600060405180830381600087803b15801561072357600080fd5b505af1158015610737573d6000803e3d6000fd5b505050506040513d6000823e601f3d908101601f1916820160405261075f91908101906113b8565b50505050565b61076d610c6c565b6001600160a01b031661077e6107ee565b6001600160a01b0316146107a45760405162461bcd60e51b81526004016103a59061167d565b6033546040516000916001600160a01b0316907f8be0079c531659141344cd1fd0a4f28419497f9722a3daafe3b4186f6b6457e0908390a3603380546001600160a01b0319169055565b6033546001600160a01b03165b90565b6040805160028082526060820183526000926020830190803683375050609d5482519293506001600160a01b03169183915060009061084d57634e487b7160e01b600052603260045260246000fd5b6001600160a01b039283166020918202929092010152609c5482519116908290600190811061088c57634e487b7160e01b600052603260045260246000fd5b6001600160a01b039283166020918202929092010152609e54604051637ff36ab560e01b81526000929190911690637ff36ab59034906108d890879087903090600019906004016116b2565b6000604051808303818588803b1580156108f157600080fd5b505af1158015610905573d6000803e3d6000fd5b50505050506040513d6000823e601f3d908101601f1916820160405261092e91908101906113b8565b609c54609a54825192935061097b926001600160a01b0392831692909116908490600190811061096e57634e487b7160e01b600052603260045260246000fd5b6020026020010151610dc6565b630484a55360e11b60008161098e610c6c565b846001815181106109af57634e487b7160e01b600052603260045260246000fd5b60209081029190910101516040516001600160a01b039092166024830152604482015260640160408051601f198184030181529190526020810180516001600160e01b03166001600160e01b031990931692909217909152609a54609b54919250610a27916001600160a01b03909116908390610e9d565b505050505050565b610a37610c6c565b6001600160a01b0316610a486107ee565b6001600160a01b031614610a6e5760405162461bcd60e51b81526004016103a59061167d565b609b55565b610a7b610c6c565b6001600160a01b0316610a8c6107ee565b6001600160a01b031614610ab25760405162461bcd60e51b81526004016103a59061167d565b6001600160a01b038116610b175760405162461bcd60e51b815260206004820152602660248201527f4f776e61626c653a206e6577206f776e657220697320746865207a65726f206160448201526564647265737360d01b60648201526084016103a5565b6033546040516001600160a01b038084169216907f8be0079c531659141344cd1fd0a4f28419497f9722a3daafe3b4186f6b6457e090600090a3603380546001600160a01b0319166001600160a01b0392909216919091179055565b600054610100900460ff1680610b8c575060005460ff16155b610ba85760405162461bcd60e51b81526004016103a59061162f565b600054610100900460ff16158015610bca576000805461ffff19166101011790555b610bd2610f2c565b610bda610f96565b8015610bec576000805461ff00191690555b50565b600054610100900460ff1680610c08575060005460ff16155b610c245760405162461bcd60e51b81526004016103a59061162f565b600054610100900460ff16158015610c46576000805461ffff19166101011790555b610c4e610f2c565b610c5782611059565b80156105f0576000805461ff00191690555050565b6000610c766110e0565b905090565b801580610d045750604051636eb1769f60e11b81523060048201526001600160a01b03838116602483015284169063dd62ed3e9060440160206040518083038186803b158015610cca57600080fd5b505afa158015610cde573d6000803e3d6000fd5b505050506040513d601f19601f82011682018060405250810190610d029190611498565b155b610d6f5760405162461bcd60e51b815260206004820152603660248201527f5361666545524332303a20617070726f76652066726f6d206e6f6e2d7a65726f60448201527520746f206e6f6e2d7a65726f20616c6c6f77616e636560501b60648201526084016103a5565b604080516001600160a01b038416602482015260448082018490528251808303909101815260649091019091526020810180516001600160e01b031663095ea7b360e01b179052610dc190849061110c565b505050565b6001600160a01b038216610e105760405162461bcd60e51b8152602060048201526011602482015270726563656976657220697320656d70747960781b60448201526064016103a5565b609954610e2a906001600160a01b03858116911683610c7b565b60995460405163ad58bdd160e01b81526001600160a01b0385811660048301528481166024830152604482018490529091169063ad58bdd190606401600060405180830381600087803b158015610e8057600080fd5b505af1158015610e94573d6000803e3d6000fd5b50505050505050565b60985460405163dc8601b360e01b81526000916001600160a01b03169063dc8601b390610ed2908790879087906004016115e8565b602060405180830381600087803b158015610eec57600080fd5b505af1158015610f00573d6000803e3d6000fd5b505050506040513d601f19601f82011682018060405250810190610f249190611498565b949350505050565b600054610100900460ff1680610f45575060005460ff16155b610f615760405162461bcd60e51b81526004016103a59061162f565b600054610100900460ff16158015610bda576000805461ffff19166101011790558015610bec576000805461ff001916905550565b600054610100900460ff1680610faf575060005460ff16155b610fcb5760405162461bcd60e51b81526004016103a59061162f565b600054610100900460ff16158015610fed576000805461ffff19166101011790555b6000610ff7610c6c565b603380546001600160a01b0319166001600160a01b038316908117909155604051919250906000907f8be0079c531659141344cd1fd0a4f28419497f9722a3daafe3b4186f6b6457e0908290a3508015610bec576000805461ff001916905550565b600054610100900460ff1680611072575060005460ff16155b61108e5760405162461bcd60e51b81526004016103a59061162f565b600054610100900460ff161580156110b0576000805461ffff19166101011790555b606580546001600160a01b0319166001600160a01b03841617905580156105f0576000805461ff00191690555050565b6065546000906001600160a01b0316331415611105575060131936013560601c6107fb565b50336107fb565b6000611161826040518060400160405280602081526020017f5361666545524332303a206c6f772d6c6576656c2063616c6c206661696c6564815250856001600160a01b03166111de9092919063ffffffff16565b805190915015610dc1578080602001905181019061117f9190611478565b610dc15760405162461bcd60e51b815260206004820152602a60248201527f5361666545524332303a204552433230206f7065726174696f6e20646964206e6044820152691bdd081cdd58d8d9595960b21b60648201526084016103a5565b6060610f2484846000856111f4565b9392505050565b6060824710156112555760405162461bcd60e51b815260206004820152602660248201527f416464726573733a20696e73756666696369656e742062616c616e636520666f6044820152651c8818d85b1b60d21b60648201526084016103a5565b843b6112a35760405162461bcd60e51b815260206004820152601d60248201527f416464726573733a2063616c6c20746f206e6f6e2d636f6e747261637400000060448201526064016103a5565b600080866001600160a01b031685876040516112bf91906115cc565b60006040518083038185875af1925050503d80600081146112fc576040519150601f19603f3d011682016040523d82523d6000602084013e611301565b606091505b509150915061131182828661131c565b979650505050505050565b6060831561132b5750816111ed565b82511561133b5782518084602001fd5b8160405162461bcd60e51b81526004016103a5919061161c565b600060208284031215611366578081fd5b81356111ed81611765565b600060208284031215611382578081fd5b81516111ed81611765565b6000806040838503121561139f578081fd5b82356113aa81611765565b946020939093013593505050565b600060208083850312156113ca578182fd5b825167ffffffffffffffff808211156113e1578384fd5b818501915085601f8301126113f4578384fd5b8151818111156114065761140661174f565b8060051b604051601f19603f8301168101818110858211171561142b5761142b61174f565b604052828152858101935084860182860187018a1015611449578788fd5b8795505b8386101561146b57805185526001959095019493860193860161144d565b5098975050505050505050565b600060208284031215611489578081fd5b815180151581146111ed578182fd5b6000602082840312156114a9578081fd5b5051919050565b600080600080600080600060e0888a0312156114ca578283fd5b87356114d581611765565b965060208801356114e581611765565b955060408801356114f581611765565b9450606088013561150581611765565b9350608088013561151581611765565b925060a088013561152581611765565b915060c088013561153581611765565b8091505092959891949750929550565b600060208284031215611556578081fd5b5035919050565b6000815180845260208085019450808401835b838110156115955781516001600160a01b031687529582019590820190600101611570565b509495945050505050565b600081518084526115b8816020860160208601611723565b601f01601f19169290920160200192915050565b600082516115de818460208701611723565b9190910192915050565b6001600160a01b038416815260606020820181905260009061160c908301856115a0565b9050826040830152949350505050565b6000602082526111ed60208301846115a0565b6020808252602e908201527f496e697469616c697a61626c653a20636f6e747261637420697320616c72656160408201526d191e481a5b9a5d1a585b1a5e995960921b606082015260800190565b6020808252818101527f4f776e61626c653a2063616c6c6572206973206e6f7420746865206f776e6572604082015260600190565b6000858252608060208301526116cb608083018661155d565b6001600160a01b03949094166040830152506060015292915050565b600086825285602083015260a0604083015261170660a083018661155d565b6001600160a01b0394909416606083015250608001529392505050565b60005b8381101561173e578181015183820152602001611726565b8381111561075f5750506000910152565b634e487b7160e01b600052604160045260246000fd5b6001600160a01b0381168114610bec57600080fdfea2646970667358221220010bb9cf65e999db04e3c4be0b842fac7a5d94baa06ba1961ca86aedd1f6743464736f6c63430008030033",
  "linkReferences": {},
  "deployedLinkReferences": {}
}