{
  "_format": "hh-sol-artifact-1",
  "contractName": "LemmaMainnet",
  "sourceName": "contracts/LemmaMainnet.sol",
  "abi": [
    {
      "anonymous": false,
      "inputs": [
        {
          "indexed": true,
          "internalType": "address",
          "name": "account",
          "type": "address"
        },
        {
          "indexed": true,
          "internalType": "uint256",
          "name": "amount",
          "type": "uint256"
        }
      ],
      "name": "ETHDeposited",
      "type": "event"
    },
    {
      "anonymous": false,
      "inputs": [
        {
          "indexed": true,
          "internalType": "address",
          "name": "account",
          "type": "address"
        },
        {
          "indexed": true,
          "internalType": "uint256",
          "name": "amount",
          "type": "uint256"
        }
      ],
      "name": "ETHWithdrawed",
      "type": "event"
    },
    {
      "anonymous": false,
      "inputs": [
        {
          "indexed": true,
          "internalType": "address",
          "name": "previousOwner",
          "type": "address"
        },
        {
          "indexed": true,
          "internalType": "address",
          "name": "newOwner",
          "type": "address"
        }
      ],
      "name": "OwnershipTransferred",
      "type": "event"
    },
    {
      "anonymous": false,
      "inputs": [
        {
          "indexed": true,
          "internalType": "address",
          "name": "account",
          "type": "address"
        },
        {
          "indexed": true,
          "internalType": "uint256",
          "name": "amount",
          "type": "uint256"
        }
      ],
      "name": "WithdrawalInfoAdded",
      "type": "event"
    },
    {
      "inputs": [],
      "name": "USDC",
      "outputs": [
        {
          "internalType": "contract IERC20",
          "name": "",
          "type": "address"
        }
      ],
      "stateMutability": "view",
      "type": "function"
    },
    {
      "inputs": [],
      "name": "WETH",
      "outputs": [
        {
          "internalType": "contract IERC20",
          "name": "",
          "type": "address"
        }
      ],
      "stateMutability": "view",
      "type": "function"
    },
    {
      "inputs": [],
      "name": "ambBridge",
      "outputs": [
        {
          "internalType": "contract IAMB",
          "name": "",
          "type": "address"
        }
      ],
      "stateMutability": "view",
      "type": "function"
    },
    {
      "inputs": [
        {
          "internalType": "uint256",
          "name": "_minimumUSDCAmountOut",
          "type": "uint256"
        }
      ],
      "name": "deposit",
      "outputs": [],
      "stateMutability": "payable",
      "type": "function"
    },
    {
      "inputs": [],
      "name": "gasLimit",
      "outputs": [
        {
          "internalType": "uint256",
          "name": "",
          "type": "uint256"
        }
      ],
      "stateMutability": "view",
      "type": "function"
    },
    {
      "inputs": [
        {
          "internalType": "contract IERC20",
          "name": "_USDC",
          "type": "address"
        },
        {
          "internalType": "contract IERC20",
          "name": "_WETH",
          "type": "address"
        },
        {
          "internalType": "contract ILemmaxDAI",
          "name": "_lemmaXDAI",
          "type": "address"
        },
        {
          "internalType": "contract IUniswapV2Router02",
          "name": "_uniswapV2Router02",
          "type": "address"
        },
        {
          "internalType": "contract IAMB",
          "name": "_ambBridge",
          "type": "address"
        },
        {
          "internalType": "contract IMultiTokenMediator",
          "name": "_multiTokenMediator",
          "type": "address"
        },
        {
          "internalType": "address",
          "name": "trustedForwarder",
          "type": "address"
        }
      ],
      "name": "initialize",
      "outputs": [],
      "stateMutability": "nonpayable",
      "type": "function"
    },
    {
      "inputs": [
        {
          "internalType": "address",
          "name": "forwarder",
          "type": "address"
        }
      ],
      "name": "isTrustedForwarder",
      "outputs": [
        {
          "internalType": "bool",
          "name": "",
          "type": "bool"
        }
      ],
      "stateMutability": "view",
      "type": "function"
    },
    {
      "inputs": [],
      "name": "lemmaXDAI",
      "outputs": [
        {
          "internalType": "contract ILemmaxDAI",
          "name": "",
          "type": "address"
        }
      ],
      "stateMutability": "view",
      "type": "function"
    },
    {
      "inputs": [],
      "name": "multiTokenMediator",
      "outputs": [
        {
          "internalType": "contract IMultiTokenMediator",
          "name": "",
          "type": "address"
        }
      ],
      "stateMutability": "view",
      "type": "function"
    },
    {
      "inputs": [],
      "name": "owner",
      "outputs": [
        {
          "internalType": "address",
          "name": "",
          "type": "address"
        }
      ],
      "stateMutability": "view",
      "type": "function"
    },
    {
      "inputs": [],
      "name": "renounceOwnership",
      "outputs": [],
      "stateMutability": "nonpayable",
      "type": "function"
    },
    {
      "inputs": [
        {
          "internalType": "uint256",
          "name": "_gasLimit",
          "type": "uint256"
        }
      ],
      "name": "setGasLimit",
      "outputs": [],
      "stateMutability": "nonpayable",
      "type": "function"
    },
    {
      "inputs": [
        {
          "internalType": "address",
          "name": "_account",
          "type": "address"
        },
        {
          "internalType": "uint256",
          "name": "_amount",
          "type": "uint256"
        }
      ],
      "name": "setWithdrawalInfo",
      "outputs": [],
      "stateMutability": "nonpayable",
      "type": "function"
    },
    {
      "inputs": [],
      "name": "totalUSDCDeposited",
      "outputs": [
        {
          "internalType": "uint256",
          "name": "",
          "type": "uint256"
        }
      ],
      "stateMutability": "view",
      "type": "function"
    },
    {
      "inputs": [
        {
          "internalType": "address",
          "name": "newOwner",
          "type": "address"
        }
      ],
      "name": "transferOwnership",
      "outputs": [],
      "stateMutability": "nonpayable",
      "type": "function"
    },
    {
      "inputs": [],
      "name": "uniswapV2Router02",
      "outputs": [
        {
          "internalType": "contract IUniswapV2Router02",
          "name": "",
          "type": "address"
        }
      ],
      "stateMutability": "view",
      "type": "function"
    },
    {
      "inputs": [
        {
          "internalType": "address",
          "name": "_account",
          "type": "address"
        }
      ],
      "name": "withdraw",
      "outputs": [],
      "stateMutability": "nonpayable",
      "type": "function"
    },
    {
      "inputs": [
        {
          "internalType": "address",
          "name": "",
          "type": "address"
        }
      ],
      "name": "withdrawalInfo",
      "outputs": [
        {
          "internalType": "uint256",
          "name": "",
          "type": "uint256"
        }
      ],
      "stateMutability": "view",
      "type": "function"
    }
  ],
  "bytecode": "0x608060405234801561001057600080fd5b506118ad806100206000396000f3fe6080604052600436106101095760003560e01c8063a7c6402c11610095578063d0ba5a7311610064578063d0ba5a73146102e4578063dec4a2f2146102fa578063ee7d72b41461031a578063f2fde38b1461033a578063f68016b71461035a57610109565b8063a7c6402c14610256578063ad5c464814610276578063b6b55f2514610296578063ba24941c146102a957610109565b8063572b6c05116100dc578063572b6c05146101ad57806368981a3a146101ec578063715018a61461020c57806389a30271146102215780638da5cb5b1461024157610109565b80630ba54df61461010e578063358764761461014b5780634e17b64c1461016d57806351cff8d91461018d575b600080fd5b34801561011a57600080fd5b5060985461012e906001600160a01b031681565b6040516001600160a01b0390911681526020015b60405180910390f35b34801561015757600080fd5b5061016b610166366004611585565b610370565b005b34801561017957600080fd5b5061016b610188366004611462565b610466565b34801561019957600080fd5b5061016b6101a836600461142a565b61062a565b3480156101b957600080fd5b506101dc6101c836600461142a565b6065546001600160a01b0390811691161490565b6040519015158152602001610142565b3480156101f857600080fd5b5060995461012e906001600160a01b031681565b34801561021857600080fd5b5061016b6107fc565b34801561022d57600080fd5b50609c5461012e906001600160a01b031681565b34801561024d57600080fd5b5061012e610885565b34801561026257600080fd5b50609e5461012e906001600160a01b031681565b34801561028257600080fd5b50609d5461012e906001600160a01b031681565b61016b6102a436600461161a565b610895565b3480156102b557600080fd5b506102d66102c436600461142a565b609f6020526000908152604090205481565b604051908152602001610142565b3480156102f057600080fd5b506102d660a05481565b34801561030657600080fd5b50609a5461012e906001600160a01b031681565b34801561032657600080fd5b5061016b61033536600461161a565b610b04565b34801561034657600080fd5b5061016b61035536600461142a565b610b48565b34801561036657600080fd5b506102d6609b5481565b600054610100900460ff1680610389575060005460ff16155b6103ae5760405162461bcd60e51b81526004016103a590611704565b60405180910390fd5b600054610100900460ff161580156103d0576000805461ffff19166101011790555b6103d8610c48565b6103e182610cc4565b609c80546001600160a01b03199081166001600160a01b038b811691909117909255609d805482168a8416179055609a80548216898416179055609e8054821688841617905560988054821687841617905560998054909116918516919091179055620f4240609b55801561045c576000805461ff00191690555b5050505050505050565b6098546001600160a01b031661047a610d41565b6001600160a01b03161461048d57600080fd5b609a546098546040805163d67bdd2560e01b815290516001600160a01b03938416939092169163d67bdd2591600480820192602092909190829003018186803b1580156104d957600080fd5b505afa1580156104ed573d6000803e3d6000fd5b505050506040513d601f19601f820116820180604052508101906105119190611446565b6001600160a01b03161461052457600080fd5b6001600160a01b0382166000908152609f60205260408120805483929061054c9084906117f8565b909155505060405181906001600160a01b038416907f283ccb186d2158a2a3df1d3934d74a42589ed49c4a69081b6daa558b3040c85f90600090a36001600160a01b038281166000908152609f60205260409081902054609c5491516370a0823160e01b8152306004820152909291909116906370a082319060240160206040518083038186803b1580156105e057600080fd5b505afa1580156105f4573d6000803e3d6000fd5b505050506040513d601f19601f82011682018060405250810190610618919061156d565b10610626576106268261062a565b5050565b6001600160a01b0381166000908152609f602052604080822080549083905581516002808252606082019093529092918160200160208202803683375050609c5482519293506001600160a01b03169183915060009061069a57634e487b7160e01b600052603260045260246000fd5b6001600160a01b039283166020918202929092010152609d548251911690829060019081106106d957634e487b7160e01b600052603260045260246000fd5b6001600160a01b039283166020918202929092010152609e54609c5461070492908116911684610d50565b609e546040516318cbafe560e01b81526000916001600160a01b0316906318cbafe59061073f908690859087908a90600019906004016117bc565b600060405180830381600087803b15801561075957600080fd5b505af115801561076d573d6000803e3d6000fd5b505050506040513d6000823e601f3d908101601f19168201604052610795919081019061148d565b9050806001815181106107b857634e487b7160e01b600052603260045260246000fd5b6020026020010151846001600160a01b03167ffb990218f8bbcf60a1e7f99ab750a96d96282e7d795e40df9b81b11d66be106660405160405180910390a350505050565b610804610d41565b6001600160a01b0316610815610885565b6001600160a01b03161461083b5760405162461bcd60e51b81526004016103a590611752565b6033546040516000916001600160a01b0316907f8be0079c531659141344cd1fd0a4f28419497f9722a3daafe3b4186f6b6457e0908390a3603380546001600160a01b0319169055565b6033546001600160a01b03165b90565b6040805160028082526060820183526000926020830190803683375050609d5482519293506001600160a01b0316918391506000906108e457634e487b7160e01b600052603260045260246000fd5b6001600160a01b039283166020918202929092010152609c5482519116908290600190811061092357634e487b7160e01b600052603260045260246000fd5b6001600160a01b039283166020918202929092010152609e54604051637ff36ab560e01b81526000929190911690637ff36ab590349061096f9087908790309060001990600401611787565b6000604051808303818588803b15801561098857600080fd5b505af115801561099c573d6000803e3d6000fd5b50505050506040513d6000823e601f3d908101601f191682016040526109c5919081019061148d565b609c54609a548251929350610a12926001600160a01b03928316929091169084906001908110610a0557634e487b7160e01b600052603260045260246000fd5b6020026020010151610e9b565b630484a55360e11b600081610a25610d41565b84600181518110610a4657634e487b7160e01b600052603260045260246000fd5b60209081029190910101516040516001600160a01b039092166024830152604482015260640160408051601f198184030181529190526020810180516001600160e01b03166001600160e01b031990931692909217909152609a54609b54919250610abe916001600160a01b03909116908390610f72565b5034610ac8610d41565b6001600160a01b03167f6c703791f399558807424f489ccd811c72b4ff0b74af547264fad7c646776df060405160405180910390a35050505050565b610b0c610d41565b6001600160a01b0316610b1d610885565b6001600160a01b031614610b435760405162461bcd60e51b81526004016103a590611752565b609b55565b610b50610d41565b6001600160a01b0316610b61610885565b6001600160a01b031614610b875760405162461bcd60e51b81526004016103a590611752565b6001600160a01b038116610bec5760405162461bcd60e51b815260206004820152602660248201527f4f776e61626c653a206e6577206f776e657220697320746865207a65726f206160448201526564647265737360d01b60648201526084016103a5565b6033546040516001600160a01b038084169216907f8be0079c531659141344cd1fd0a4f28419497f9722a3daafe3b4186f6b6457e090600090a3603380546001600160a01b0319166001600160a01b0392909216919091179055565b600054610100900460ff1680610c61575060005460ff16155b610c7d5760405162461bcd60e51b81526004016103a590611704565b600054610100900460ff16158015610c9f576000805461ffff19166101011790555b610ca7611001565b610caf61106b565b8015610cc1576000805461ff00191690555b50565b600054610100900460ff1680610cdd575060005460ff16155b610cf95760405162461bcd60e51b81526004016103a590611704565b600054610100900460ff16158015610d1b576000805461ffff19166101011790555b610d23611001565b610d2c8261112e565b8015610626576000805461ff00191690555050565b6000610d4b6111b5565b905090565b801580610dd95750604051636eb1769f60e11b81523060048201526001600160a01b03838116602483015284169063dd62ed3e9060440160206040518083038186803b158015610d9f57600080fd5b505afa158015610db3573d6000803e3d6000fd5b505050506040513d601f19601f82011682018060405250810190610dd7919061156d565b155b610e445760405162461bcd60e51b815260206004820152603660248201527f5361666545524332303a20617070726f76652066726f6d206e6f6e2d7a65726f60448201527520746f206e6f6e2d7a65726f20616c6c6f77616e636560501b60648201526084016103a5565b604080516001600160a01b038416602482015260448082018490528251808303909101815260649091019091526020810180516001600160e01b031663095ea7b360e01b179052610e969084906111e1565b505050565b6001600160a01b038216610ee55760405162461bcd60e51b8152602060048201526011602482015270726563656976657220697320656d70747960781b60448201526064016103a5565b609954610eff906001600160a01b03858116911683610d50565b60995460405163ad58bdd160e01b81526001600160a01b0385811660048301528481166024830152604482018490529091169063ad58bdd190606401600060405180830381600087803b158015610f5557600080fd5b505af1158015610f69573d6000803e3d6000fd5b50505050505050565b60985460405163dc8601b360e01b81526000916001600160a01b03169063dc8601b390610fa7908790879087906004016116bd565b602060405180830381600087803b158015610fc157600080fd5b505af1158015610fd5573d6000803e3d6000fd5b505050506040513d601f19601f82011682018060405250810190610ff9919061156d565b949350505050565b600054610100900460ff168061101a575060005460ff16155b6110365760405162461bcd60e51b81526004016103a590611704565b600054610100900460ff16158015610caf576000805461ffff19166101011790558015610cc1576000805461ff001916905550565b600054610100900460ff1680611084575060005460ff16155b6110a05760405162461bcd60e51b81526004016103a590611704565b600054610100900460ff161580156110c2576000805461ffff19166101011790555b60006110cc610d41565b603380546001600160a01b0319166001600160a01b038316908117909155604051919250906000907f8be0079c531659141344cd1fd0a4f28419497f9722a3daafe3b4186f6b6457e0908290a3508015610cc1576000805461ff001916905550565b600054610100900460ff1680611147575060005460ff16155b6111635760405162461bcd60e51b81526004016103a590611704565b600054610100900460ff16158015611185576000805461ffff19166101011790555b606580546001600160a01b0319166001600160a01b0384161790558015610626576000805461ff00191690555050565b6065546000906001600160a01b03163314156111da575060131936013560601c610892565b5033610892565b6000611236826040518060400160405280602081526020017f5361666545524332303a206c6f772d6c6576656c2063616c6c206661696c6564815250856001600160a01b03166112b39092919063ffffffff16565b805190915015610e965780806020019051810190611254919061154d565b610e965760405162461bcd60e51b815260206004820152602a60248201527f5361666545524332303a204552433230206f7065726174696f6e20646964206e6044820152691bdd081cdd58d8d9595960b21b60648201526084016103a5565b6060610ff984846000856112c9565b9392505050565b60608247101561132a5760405162461bcd60e51b815260206004820152602660248201527f416464726573733a20696e73756666696369656e742062616c616e636520666f6044820152651c8818d85b1b60d21b60648201526084016103a5565b843b6113785760405162461bcd60e51b815260206004820152601d60248201527f416464726573733a2063616c6c20746f206e6f6e2d636f6e747261637400000060448201526064016103a5565b600080866001600160a01b0316858760405161139491906116a1565b60006040518083038185875af1925050503d80600081146113d1576040519150601f19603f3d011682016040523d82523d6000602084013e6113d6565b606091505b50915091506113e68282866113f1565b979650505050505050565b606083156114005750816112c2565b8251156114105782518084602001fd5b8160405162461bcd60e51b81526004016103a591906116f1565b60006020828403121561143b578081fd5b81356112c281611862565b600060208284031215611457578081fd5b81516112c281611862565b60008060408385031215611474578081fd5b823561147f81611862565b946020939093013593505050565b6000602080838503121561149f578182fd5b825167ffffffffffffffff808211156114b6578384fd5b818501915085601f8301126114c9578384fd5b8151818111156114db576114db61184c565b8060051b604051601f19603f830116810181811085821117156115005761150061184c565b604052828152858101935084860182860187018a101561151e578788fd5b8795505b83861015611540578051855260019590950194938601938601611522565b5098975050505050505050565b60006020828403121561155e578081fd5b815180151581146112c2578182fd5b60006020828403121561157e578081fd5b5051919050565b600080600080600080600060e0888a03121561159f578283fd5b87356115aa81611862565b965060208801356115ba81611862565b955060408801356115ca81611862565b945060608801356115da81611862565b935060808801356115ea81611862565b925060a08801356115fa81611862565b915060c088013561160a81611862565b8091505092959891949750929550565b60006020828403121561162b578081fd5b5035919050565b6000815180845260208085019450808401835b8381101561166a5781516001600160a01b031687529582019590820190600101611645565b509495945050505050565b6000815180845261168d81602086016020860161181c565b601f01601f19169290920160200192915050565b600082516116b381846020870161181c565b9190910192915050565b6001600160a01b03841681526060602082018190526000906116e190830185611675565b9050826040830152949350505050565b6000602082526112c26020830184611675565b6020808252602e908201527f496e697469616c697a61626c653a20636f6e747261637420697320616c72656160408201526d191e481a5b9a5d1a585b1a5e995960921b606082015260800190565b6020808252818101527f4f776e61626c653a2063616c6c6572206973206e6f7420746865206f776e6572604082015260600190565b6000858252608060208301526117a06080830186611632565b6001600160a01b03949094166040830152506060015292915050565b600086825285602083015260a060408301526117db60a0830186611632565b6001600160a01b0394909416606083015250608001529392505050565b6000821982111561181757634e487b7160e01b81526011600452602481fd5b500190565b60005b8381101561183757818101518382015260200161181f565b83811115611846576000848401525b50505050565b634e487b7160e01b600052604160045260246000fd5b6001600160a01b0381168114610cc157600080fdfea26469706673582212206147825c7348ff8dd9caca337125cf8d0f209857e012dcd165eb37cbea5ea01964736f6c63430008030033",
  "linkReferences": {},
  "deployedLinkReferences": {}
}