{
  "_format": "hh-sol-artifact-1",
  "contractName": "LemmaPerpetual",
  "sourceName": "contracts/wrappers/LemmaPerpetual.sol",
  "abi": [
    {
      "anonymous": false,
      "inputs": [
        {
          "indexed": true,
          "internalType": "address",
          "name": "previousOwner",
          "type": "address"
        },
        {
          "indexed": true,
          "internalType": "address",
          "name": "newOwner",
          "type": "address"
        }
      ],
      "name": "OwnershipTransferred",
      "type": "event"
    },
    {
      "inputs": [],
      "name": "ETH_USDC_AMM",
      "outputs": [
        {
          "internalType": "contract IAmm",
          "name": "",
          "type": "address"
        }
      ],
      "stateMutability": "view",
      "type": "function"
    },
    {
      "inputs": [],
      "name": "USDC",
      "outputs": [
        {
          "internalType": "contract IERC20",
          "name": "",
          "type": "address"
        }
      ],
      "stateMutability": "view",
      "type": "function"
    },
    {
      "inputs": [
        {
          "internalType": "contract IAmm",
          "name": "_amm",
          "type": "address"
        },
        {
          "components": [
            {
              "internalType": "uint256",
              "name": "d",
              "type": "uint256"
            }
          ],
          "internalType": "struct Decimal.decimal",
          "name": "_positionNotional",
          "type": "tuple"
        }
      ],
      "name": "calcFee",
      "outputs": [
        {
          "components": [
            {
              "internalType": "uint256",
              "name": "d",
              "type": "uint256"
            }
          ],
          "internalType": "struct Decimal.decimal",
          "name": "",
          "type": "tuple"
        }
      ],
      "stateMutability": "view",
      "type": "function"
    },
    {
      "inputs": [],
      "name": "clearingHouse",
      "outputs": [
        {
          "internalType": "contract IClearingHouse",
          "name": "",
          "type": "address"
        }
      ],
      "stateMutability": "view",
      "type": "function"
    },
    {
      "inputs": [],
      "name": "clearingHouseViewer",
      "outputs": [
        {
          "internalType": "contract IClearingHouseViewer",
          "name": "",
          "type": "address"
        }
      ],
      "stateMutability": "view",
      "type": "function"
    },
    {
      "inputs": [
        {
          "internalType": "uint256",
          "name": "_amount",
          "type": "uint256"
        }
      ],
      "name": "close",
      "outputs": [],
      "stateMutability": "nonpayable",
      "type": "function"
    },
    {
      "inputs": [
        {
          "internalType": "uint256",
          "name": "_amount",
          "type": "uint256"
        }
      ],
      "name": "fees",
      "outputs": [
        {
          "internalType": "uint256",
          "name": "",
          "type": "uint256"
        }
      ],
      "stateMutability": "view",
      "type": "function"
    },
    {
      "inputs": [],
      "name": "getTotalCollateral",
      "outputs": [
        {
          "internalType": "uint256",
          "name": "",
          "type": "uint256"
        }
      ],
      "stateMutability": "view",
      "type": "function"
    },
    {
      "inputs": [
        {
          "internalType": "contract IClearingHouse",
          "name": "_clearingHouse",
          "type": "address"
        },
        {
          "internalType": "contract IClearingHouseViewer",
          "name": "_clearingHouseViewer",
          "type": "address"
        },
        {
          "internalType": "contract IAmm",
          "name": "_ETH_USDC_AMM",
          "type": "address"
        },
        {
          "internalType": "contract IERC20",
          "name": "_USDC",
          "type": "address"
        }
      ],
      "name": "initialize",
      "outputs": [],
      "stateMutability": "nonpayable",
      "type": "function"
    },
    {
      "inputs": [],
      "name": "lemmaToken",
      "outputs": [
        {
          "internalType": "address",
          "name": "",
          "type": "address"
        }
      ],
      "stateMutability": "view",
      "type": "function"
    },
    {
      "inputs": [
        {
          "internalType": "uint256",
          "name": "_amount",
          "type": "uint256"
        }
      ],
      "name": "open",
      "outputs": [],
      "stateMutability": "nonpayable",
      "type": "function"
    },
    {
      "inputs": [],
      "name": "owner",
      "outputs": [
        {
          "internalType": "address",
          "name": "",
          "type": "address"
        }
      ],
      "stateMutability": "view",
      "type": "function"
    },
    {
      "inputs": [],
      "name": "renounceOwnership",
      "outputs": [],
      "stateMutability": "nonpayable",
      "type": "function"
    },
    {
      "inputs": [
        {
          "internalType": "address",
          "name": "_lemmaToken",
          "type": "address"
        }
      ],
      "name": "setLemmaToken",
      "outputs": [],
      "stateMutability": "nonpayable",
      "type": "function"
    },
    {
      "inputs": [
        {
          "internalType": "address",
          "name": "newOwner",
          "type": "address"
        }
      ],
      "name": "transferOwnership",
      "outputs": [],
      "stateMutability": "nonpayable",
      "type": "function"
    }
  ],
  "bytecode": "0x608060405234801561001057600080fd5b5061187a806100206000396000f3fe608060405234801561001057600080fd5b50600436106100f55760003560e01c80637070179e116100975780638da5cb5b116100665780638da5cb5b146101fc578063d6eb59101461020d578063f2fde38b14610215578063f8c8765e14610228576100f5565b80637070179e146101bb578063715018a6146101ce578063890d9790146101d657806389a30271146101e9576100f5565b80630af96800116100d35780630af968001461016157806312006d4c146101745780634acc79ed14610187578063690e7c09146101a8576100f5565b806305e832e9146100fa5780630872f923146101215780630aebeb4e1461014c575b600080fd5b61010d610108366004611365565b61023b565b604051905181526020015b60405180910390f35b606654610134906001600160a01b031681565b6040516001600160a01b039091168152602001610118565b61015f61015a3660046114d6565b6102de565b005b606554610134906001600160a01b031681565b606954610134906001600160a01b031681565b61019a6101953660046114d6565b6106fa565b604051908152602001610118565b61015f6101b63660046114d6565b61072d565b606754610134906001600160a01b031681565b61015f6108a4565b61015f6101e4366004611329565b610918565b606854610134906001600160a01b031681565b6033546001600160a01b0316610134565b61019a610964565b61015f610223366004611329565b610a04565b61015f6102363660046113b1565b610aef565b604080516020810190915260008152604051636226795560e01b81528251600482015260009081906001600160a01b03861690636226795590602401604080518083038186803b15801561028e57600080fd5b505afa1580156102a2573d6000803e3d6000fd5b505050506040513d601f19601f820116820180604052508101906102c691906114a2565b90925090506102d58282610bbb565b95945050505050565b6069546001600160a01b0316331461033d5760405162461bcd60e51b815260206004820152601f60248201527f4c656d6d613a206f6e6c79206c656d6d6120746f6b656e20616c6c6f7765640060448201526064015b60405180910390fd5b606854600090610356906001600160a01b031683610bf0565b9050600061048461047d610475606760009054906101000a90046001600160a01b03166001600160a01b0316636febdd506040518163ffffffff1660e01b815260040160206040518083038186803b1580156103b157600080fd5b505afa1580156103c5573d6000803e3d6000fd5b505050506040513d601f19601f820116820180604052508101906103e99190611487565b606760009054906101000a90046001600160a01b03166001600160a01b0316636baccaba6040518163ffffffff1660e01b815260040160206040518083038186803b15801561043757600080fd5b505afa15801561044b573d6000803e3d6000fd5b505050506040513d601f19601f8201168201806040525081019061046f9190611487565b90610bbb565b61046f610ca6565b8390610cd1565b90506000610490610ca6565b905060006104b560408051602080820183526000918290528251908101909252815290565b90506104bf610964565b851415610564576065546067546001600160a01b039182169163a8c1b0bc911661050060408051602080820183526000918290528251908101909252815290565b6040516001600160e01b031960e085901b1681526001600160a01b039092166004830152516024820152604401600060405180830381600087803b15801561054757600080fd5b505af115801561055b573d6000803e3d6000fd5b505050506106bf565b6065546067546001600160a01b03918216916330e2ae659116610587818761023b565b6040516001600160e01b031960e085901b1681526001600160a01b039092166004830152516024820152604401600060405180830381600087803b1580156105ce57600080fd5b505af11580156105e2573d6000803e3d6000fd5b505060655460675460405163893d242d60e01b81526001600160a01b03928316945063893d242d93506106249290911690600190889088908890600401611522565b600060405180830381600087803b15801561063e57600080fd5b505af1158015610652573d6000803e3d6000fd5b50506065546067546040516330e2ae6560e01b81526001600160a01b03918216600482015287516024820152911692506330e2ae659150604401600060405180830381600087803b1580156106a657600080fd5b505af11580156106ba573d6000803e3d6000fd5b505050505b6069546068546106f3916001600160a01b03908116916106e0911686610cfc565b6068546001600160a01b03169190610d96565b5050505050565b606854606754600091610727916001600160a01b039182169161072291166101088387610bf0565b610cfc565b92915050565b6069546001600160a01b031633146107875760405162461bcd60e51b815260206004820152601f60248201527f4c656d6d613a206f6e6c79206c656d6d6120746f6b656e20616c6c6f776564006044820152606401610334565b6068546000906107a0906001600160a01b031683610bf0565b905060006107fb61047d610475606760009054906101000a90046001600160a01b03166001600160a01b0316636febdd506040518163ffffffff1660e01b815260040160206040518083038186803b1580156103b157600080fd5b90506000610807610ca6565b9050600061082c60408051602080820183526000918290528251908101909252815290565b60655460675460405163893d242d60e01b81529293506001600160a01b039182169263893d242d9261086b921690600090889088908890600401611522565b600060405180830381600087803b15801561088557600080fd5b505af1158015610899573d6000803e3d6000fd5b505050505050505050565b6033546001600160a01b031633146108ce5760405162461bcd60e51b8152600401610334906115f3565b6033546040516000916001600160a01b0316907f8be0079c531659141344cd1fd0a4f28419497f9722a3daafe3b4186f6b6457e0908390a3603380546001600160a01b0319169055565b6033546001600160a01b031633146109425760405162461bcd60e51b8152600401610334906115f3565b606980546001600160a01b0319166001600160a01b0392909216919091179055565b6068546066546067546040516302ded8ab60e31b81526001600160a01b0391821660048201523060248201526000936109ff939083169216906316f6c5589060440160c06040518083038186803b1580156109be57600080fd5b505afa1580156109d2573d6000803e3d6000fd5b505050506040513d601f19601f820116820180604052508101906109f6919061140c565b60200151610cfc565b905090565b6033546001600160a01b03163314610a2e5760405162461bcd60e51b8152600401610334906115f3565b6001600160a01b038116610a935760405162461bcd60e51b815260206004820152602660248201527f4f776e61626c653a206e6577206f776e657220697320746865207a65726f206160448201526564647265737360d01b6064820152608401610334565b6033546040516001600160a01b038084169216907f8be0079c531659141344cd1fd0a4f28419497f9722a3daafe3b4186f6b6457e090600090a3603380546001600160a01b0319166001600160a01b0392909216919091179055565b600054610100900460ff1680610b08575060005460ff16155b610b245760405162461bcd60e51b8152600401610334906115a5565b600054610100900460ff16158015610b46576000805461ffff19166101011790555b610b4e610dfe565b606580546001600160a01b038088166001600160a01b0319928316179092556066805487841690831617905560678054868416908316179055606880549285169290911682179055610ba39086600019610e7a565b80156106f3576000805461ff00191690555050505050565b60408051602081019091526000815260408051602081019091526000815282518451610be79190611667565b81529392505050565b604080516020810190915260008152610c9f6040518060200160405280856001600160a01b031663313ce5676040518163ffffffff1660e01b815260040160206040518083038186803b158015610c4657600080fd5b505afa158015610c5a573d6000803e3d6000fd5b505050506040513d601f19601f82011682018060405250810190610c7e91906114ee565b610c8990600a6116e5565b9052604080516020810190915284815290610cd1565b9392505050565b6040805160208101909152600081526040518060200160405280610cca6012610f9e565b9052905090565b60408051602081019091526000815260408051602081019091526000815282518451610be791610fae565b6000610c9f610d92846001600160a01b031663313ce5676040518163ffffffff1660e01b815260040160206040518083038186803b158015610d3d57600080fd5b505afa158015610d51573d6000803e3d6000fd5b505050506040513d601f19601f82011682018060405250810190610d7591906114ee565b610d809060126117d2565b610d8b90600a6116e5565b8490610fbc565b5190565b6040516001600160a01b038316602482015260448101829052610df990849063a9059cbb60e01b906064015b60408051601f198184030181529190526020810180516001600160e01b03166001600160e01b031990931692909217909152610fe7565b505050565b600054610100900460ff1680610e17575060005460ff16155b610e335760405162461bcd60e51b8152600401610334906115a5565b600054610100900460ff16158015610e55576000805461ffff19166101011790555b610e5d6110b9565b610e65611123565b8015610e77576000805461ff00191690555b50565b801580610f035750604051636eb1769f60e11b81523060048201526001600160a01b03838116602483015284169063dd62ed3e9060440160206040518083038186803b158015610ec957600080fd5b505afa158015610edd573d6000803e3d6000fd5b505050506040513d601f19601f82011682018060405250810190610f0191906114ee565b155b610f6e5760405162461bcd60e51b815260206004820152603660248201527f5361666545524332303a20617070726f76652066726f6d206e6f6e2d7a65726f60448201527520746f206e6f6e2d7a65726f20616c6c6f77616e636560501b6064820152608401610334565b6040516001600160a01b038316602482015260448101829052610df990849063095ea7b360e01b90606401610dc2565b600061072760ff8316600a6116e5565b6000610c9f838360126111d1565b6040805160208101909152600081526040805160208101909152600081528351610be790849061167f565b600061103c826040518060400160405280602081526020017f5361666545524332303a206c6f772d6c6576656c2063616c6c206661696c6564815250856001600160a01b03166111f99092919063ffffffff16565b805190915015610df9578080602001905181019061105a9190611345565b610df95760405162461bcd60e51b815260206004820152602a60248201527f5361666545524332303a204552433230206f7065726174696f6e20646964206e6044820152691bdd081cdd58d8d9595960b21b6064820152608401610334565b600054610100900460ff16806110d2575060005460ff16155b6110ee5760405162461bcd60e51b8152600401610334906115a5565b600054610100900460ff16158015610e65576000805461ffff19166101011790558015610e77576000805461ff001916905550565b600054610100900460ff168061113c575060005460ff16155b6111585760405162461bcd60e51b8152600401610334906115a5565b600054610100900460ff1615801561117a576000805461ffff19166101011790555b603380546001600160a01b0319163390811790915560405181906000907f8be0079c531659141344cd1fd0a4f28419497f9722a3daafe3b4186f6b6457e0908290a3508015610e77576000805461ff001916905550565b6000826111dd83610f9e565b6111e790866117b3565b6111f1919061167f565b949350505050565b60606111f1848460008585843b6112525760405162461bcd60e51b815260206004820152601d60248201527f416464726573733a2063616c6c20746f206e6f6e2d636f6e74726163740000006044820152606401610334565b600080866001600160a01b0316858760405161126e9190611506565b60006040518083038185875af1925050503d80600081146112ab576040519150601f19603f3d011682016040523d82523d6000602084013e6112b0565b606091505b50915091506112c08282866112cb565b979650505050505050565b606083156112da575081610c9f565b8251156112ea5782518084602001fd5b8160405162461bcd60e51b81526004016103349190611572565b600060208284031215611315578081fd5b61131f6020611628565b9151825250919050565b60006020828403121561133a578081fd5b8135610c9f8161182f565b600060208284031215611356578081fd5b81518015158114610c9f578182fd5b6000808284036040811215611378578182fd5b83356113838161182f565b92506020601f1982011215611396578182fd5b506113a16020611628565b6020939093013583525092909150565b600080600080608085870312156113c6578182fd5b84356113d18161182f565b935060208501356113e18161182f565b925060408501356113f18161182f565b915060608501356114018161182f565b939692955090935050565b600060c0828403121561141d578081fd5b61142760c0611628565b6114318484611304565b81526114408460208501611304565b60208201526114528460408501611304565b60408201526114648460608501611304565b60608201526080830151608082015260a083015160a08201528091505092915050565b600060208284031215611498578081fd5b610c9f8383611304565b600080604083850312156114b4578182fd5b6114be8484611304565b91506114cd8460208501611304565b90509250929050565b6000602082840312156114e7578081fd5b5035919050565b6000602082840312156114ff578081fd5b5051919050565b600082516115188184602087016117e9565b9190910192915050565b6001600160a01b038616815260a081016002861061155057634e487b7160e01b600052602160045260246000fd5b6020820195909552925160408401529051606083015251608090910152919050565b60006020825282518060208401526115918160408501602087016117e9565b601f01601f19169190910160400192915050565b6020808252602e908201527f496e697469616c697a61626c653a20636f6e747261637420697320616c72656160408201526d191e481a5b9a5d1a585b1a5e995960921b606082015260800190565b6020808252818101527f4f776e61626c653a2063616c6c6572206973206e6f7420746865206f776e6572604082015260600190565b604051601f8201601f1916810167ffffffffffffffff8111828210171561165f57634e487b7160e01b600052604160045260246000fd5b604052919050565b6000821982111561167a5761167a611819565b500190565b60008261169a57634e487b7160e01b81526012600452602481fd5b500490565b80825b60018086116116b157506116dc565b8187048211156116c3576116c3611819565b808616156116d057918102915b9490941c9380026116a2565b94509492505050565b6000610c9f60001984846000826116fe57506001610c9f565b8161170b57506000610c9f565b8160018114611721576002811461172b57611758565b6001915050610c9f565b60ff84111561173c5761173c611819565b6001841b91508482111561175257611752611819565b50610c9f565b5060208310610133831016604e8410600b841016171561178b575081810a8381111561178657611786611819565b610c9f565b611798848484600161169f565b8086048211156117aa576117aa611819565b02949350505050565b60008160001904831182151516156117cd576117cd611819565b500290565b6000828210156117e4576117e4611819565b500390565b60005b838110156118045781810151838201526020016117ec565b83811115611813576000848401525b50505050565b634e487b7160e01b600052601160045260246000fd5b6001600160a01b0381168114610e7757600080fdfea2646970667358221220091fd2ccfa34ade631479a5b64ba996ffdb67f21aae9fee9735f9b47b2443a4a64736f6c63430008030033",
  "linkReferences": {},
  "deployedLinkReferences": {}
}