{
  "_format": "hh-sol-artifact-1",
  "contractName": "LemmaMainnet",
  "sourceName": "contracts/LemmaMainnet.sol",
  "abi": [
    {
      "anonymous": false,
      "inputs": [
        {
          "indexed": true,
          "internalType": "address",
          "name": "account",
          "type": "address"
        },
        {
          "indexed": true,
          "internalType": "uint256",
          "name": "amount",
          "type": "uint256"
        }
      ],
      "name": "ETHDeposited",
      "type": "event"
    },
    {
      "anonymous": false,
      "inputs": [
        {
          "indexed": true,
          "internalType": "address",
          "name": "account",
          "type": "address"
        },
        {
          "indexed": true,
          "internalType": "uint256",
          "name": "amount",
          "type": "uint256"
        }
      ],
      "name": "ETHWithdrawed",
      "type": "event"
    },
    {
      "anonymous": false,
      "inputs": [
        {
          "indexed": true,
          "internalType": "address",
          "name": "previousOwner",
          "type": "address"
        },
        {
          "indexed": true,
          "internalType": "address",
          "name": "newOwner",
          "type": "address"
        }
      ],
      "name": "OwnershipTransferred",
      "type": "event"
    },
    {
      "anonymous": false,
      "inputs": [
        {
          "indexed": true,
          "internalType": "address",
          "name": "account",
          "type": "address"
        },
        {
          "indexed": true,
          "internalType": "uint256",
          "name": "amount",
          "type": "uint256"
        }
      ],
      "name": "WithdrawalInfoAdded",
      "type": "event"
    },
    {
      "inputs": [],
      "name": "USDC",
      "outputs": [
        {
          "internalType": "contract IERC20",
          "name": "",
          "type": "address"
        }
      ],
      "stateMutability": "view",
      "type": "function"
    },
    {
      "inputs": [],
      "name": "WETH",
      "outputs": [
        {
          "internalType": "contract IERC20",
          "name": "",
          "type": "address"
        }
      ],
      "stateMutability": "view",
      "type": "function"
    },
    {
      "inputs": [],
      "name": "ambBridge",
      "outputs": [
        {
          "internalType": "contract IAMB",
          "name": "",
          "type": "address"
        }
      ],
      "stateMutability": "view",
      "type": "function"
    },
    {
      "inputs": [],
      "name": "cap",
      "outputs": [
        {
          "internalType": "uint256",
          "name": "",
          "type": "uint256"
        }
      ],
      "stateMutability": "view",
      "type": "function"
    },
    {
      "inputs": [
        {
          "internalType": "uint256",
          "name": "_minimumUSDCAmountOut",
          "type": "uint256"
        }
      ],
      "name": "deposit",
      "outputs": [],
      "stateMutability": "payable",
      "type": "function"
    },
    {
      "inputs": [],
      "name": "gasLimit",
      "outputs": [
        {
          "internalType": "uint256",
          "name": "",
          "type": "uint256"
        }
      ],
      "stateMutability": "view",
      "type": "function"
    },
    {
      "inputs": [
        {
          "internalType": "contract IERC20",
          "name": "_USDC",
          "type": "address"
        },
        {
          "internalType": "contract IERC20",
          "name": "_WETH",
          "type": "address"
        },
        {
          "internalType": "contract ILemmaxDAI",
          "name": "_lemmaXDAI",
          "type": "address"
        },
        {
          "internalType": "contract IUniswapV2Router02",
          "name": "_uniswapV2Router02",
          "type": "address"
        },
        {
          "internalType": "contract IAMB",
          "name": "_ambBridge",
          "type": "address"
        },
        {
          "internalType": "contract IMultiTokenMediator",
          "name": "_multiTokenMediator",
          "type": "address"
        },
        {
          "internalType": "address",
          "name": "trustedForwarder",
          "type": "address"
        },
        {
          "internalType": "uint256",
          "name": "_cap",
          "type": "uint256"
        }
      ],
      "name": "initialize",
      "outputs": [],
      "stateMutability": "nonpayable",
      "type": "function"
    },
    {
      "inputs": [
        {
          "internalType": "address",
          "name": "forwarder",
          "type": "address"
        }
      ],
      "name": "isTrustedForwarder",
      "outputs": [
        {
          "internalType": "bool",
          "name": "",
          "type": "bool"
        }
      ],
      "stateMutability": "view",
      "type": "function"
    },
    {
      "inputs": [],
      "name": "lemmaXDAI",
      "outputs": [
        {
          "internalType": "contract ILemmaxDAI",
          "name": "",
          "type": "address"
        }
      ],
      "stateMutability": "view",
      "type": "function"
    },
    {
      "inputs": [
        {
          "internalType": "address",
          "name": "",
          "type": "address"
        }
      ],
      "name": "minimumETHToBeWithdrawn",
      "outputs": [
        {
          "internalType": "uint256",
          "name": "",
          "type": "uint256"
        }
      ],
      "stateMutability": "view",
      "type": "function"
    },
    {
      "inputs": [],
      "name": "multiTokenMediator",
      "outputs": [
        {
          "internalType": "contract IMultiTokenMediator",
          "name": "",
          "type": "address"
        }
      ],
      "stateMutability": "view",
      "type": "function"
    },
    {
      "inputs": [],
      "name": "owner",
      "outputs": [
        {
          "internalType": "address",
          "name": "",
          "type": "address"
        }
      ],
      "stateMutability": "view",
      "type": "function"
    },
    {
      "inputs": [],
      "name": "renounceOwnership",
      "outputs": [],
      "stateMutability": "nonpayable",
      "type": "function"
    },
    {
      "inputs": [
        {
          "internalType": "uint256",
          "name": "_cap",
          "type": "uint256"
        }
      ],
      "name": "setCap",
      "outputs": [],
      "stateMutability": "nonpayable",
      "type": "function"
    },
    {
      "inputs": [
        {
          "internalType": "uint256",
          "name": "_gasLimit",
          "type": "uint256"
        }
      ],
      "name": "setGasLimit",
      "outputs": [],
      "stateMutability": "nonpayable",
      "type": "function"
    },
    {
      "inputs": [
        {
          "internalType": "uint256",
          "name": "_minETHOut",
          "type": "uint256"
        }
      ],
      "name": "setMinimuETHToBeWithdrawn",
      "outputs": [],
      "stateMutability": "nonpayable",
      "type": "function"
    },
    {
      "inputs": [
        {
          "internalType": "address",
          "name": "_account",
          "type": "address"
        },
        {
          "internalType": "uint256",
          "name": "_amount",
          "type": "uint256"
        },
        {
          "internalType": "uint256",
          "name": "_minETHOut",
          "type": "uint256"
        }
      ],
      "name": "setWithdrawalInfo",
      "outputs": [],
      "stateMutability": "nonpayable",
      "type": "function"
    },
    {
      "inputs": [],
      "name": "totalETHDeposited",
      "outputs": [
        {
          "internalType": "uint256",
          "name": "",
          "type": "uint256"
        }
      ],
      "stateMutability": "view",
      "type": "function"
    },
    {
      "inputs": [
        {
          "internalType": "address",
          "name": "newOwner",
          "type": "address"
        }
      ],
      "name": "transferOwnership",
      "outputs": [],
      "stateMutability": "nonpayable",
      "type": "function"
    },
    {
      "inputs": [],
      "name": "uniswapV2Router02",
      "outputs": [
        {
          "internalType": "contract IUniswapV2Router02",
          "name": "",
          "type": "address"
        }
      ],
      "stateMutability": "view",
      "type": "function"
    },
    {
      "inputs": [
        {
          "internalType": "address",
          "name": "_account",
          "type": "address"
        }
      ],
      "name": "withdraw",
      "outputs": [],
      "stateMutability": "nonpayable",
      "type": "function"
    },
    {
      "inputs": [
        {
          "internalType": "address",
          "name": "",
          "type": "address"
        }
      ],
      "name": "withdrawalInfo",
      "outputs": [
        {
          "internalType": "uint256",
          "name": "",
          "type": "uint256"
        }
      ],
      "stateMutability": "view",
      "type": "function"
    }
  ],
  "bytecode": "0x608060405234801561001057600080fd5b50611ae1806100206000396000f3fe6080604052600436106101355760003560e01c806389a30271116100ab578063b6b55f251161006f578063b6b55f2514610369578063ba24941c1461037c578063dec4a2f2146103a9578063ee7d72b4146103c9578063f2fde38b146103e9578063f68016b71461040957610135565b806389a30271146102d45780638da5cb5b146102f4578063a407474814610309578063a7c6402c14610329578063ad5c46481461034957610135565b806353fbc09b116100fd57806353fbc09b1461020a578063572b6c051461022a57806368981a3a14610269578063715018a6146102895780637b2c90701461029e57806388301911146102b457610135565b806306bf1c4c1461013a5780630ba54df61461017a578063355274ea146101b257806347786d37146101c857806351cff8d9146101ea575b600080fd5b34801561014657600080fd5b5061016761015536600461164b565b60a26020526000908152604090205481565b6040519081526020015b60405180910390f35b34801561018657600080fd5b5060985461019a906001600160a01b031681565b6040516001600160a01b039091168152602001610171565b3480156101be57600080fd5b5061016760a05481565b3480156101d457600080fd5b506101e86101e336600461184e565b61041f565b005b3480156101f657600080fd5b506101e861020536600461164b565b61046c565b34801561021657600080fd5b506101e8610225366004611683565b610649565b34801561023657600080fd5b5061025961024536600461164b565b6065546001600160a01b0390811691161490565b6040519015158152602001610171565b34801561027557600080fd5b5060995461019a906001600160a01b031681565b34801561029557600080fd5b506101e86108a4565b3480156102aa57600080fd5b50610167609f5481565b3480156102c057600080fd5b506101e86102cf3660046117af565b61092d565b3480156102e057600080fd5b50609c5461019a906001600160a01b031681565b34801561030057600080fd5b5061019a610a20565b34801561031557600080fd5b506101e861032436600461184e565b610a30565b34801561033557600080fd5b50609e5461019a906001600160a01b031681565b34801561035557600080fd5b50609d5461019a906001600160a01b031681565b6101e861037736600461184e565b610a5a565b34801561038857600080fd5b5061016761039736600461164b565b60a16020526000908152604090205481565b3480156103b557600080fd5b50609a5461019a906001600160a01b031681565b3480156103d557600080fd5b506101e86103e436600461184e565b610d29565b3480156103f557600080fd5b506101e861040436600461164b565b610d6d565b34801561041557600080fd5b50610167609b5481565b610427610e6d565b6001600160a01b0316610438610a20565b6001600160a01b0316146104675760405162461bcd60e51b815260040161045e90611986565b60405180910390fd5b60a055565b6001600160a01b038116600090815260a160208181526040808420805460a28452828620549484529085905581516002808252606082018452919593909290830190803683375050609c5482519293506001600160a01b0316918391506000906104e657634e487b7160e01b600052603260045260246000fd5b6001600160a01b039283166020918202929092010152609d5482519116908290600190811061052557634e487b7160e01b600052603260045260246000fd5b6001600160a01b039283166020918202929092010152609e54609c5461055092908116911685610e7c565b609e546040516318cbafe560e01b81526000916001600160a01b0316906318cbafe59061058b908790879087908b90600019906004016119f0565b600060405180830381600087803b1580156105a557600080fd5b505af11580156105b9573d6000803e3d6000fd5b505050506040513d6000823e601f3d908101601f191682016040526105e191908101906116b7565b90508060018151811061060457634e487b7160e01b600052603260045260246000fd5b6020026020010151856001600160a01b03167ffb990218f8bbcf60a1e7f99ab750a96d96282e7d795e40df9b81b11d66be106660405160405180910390a35050505050565b6098546001600160a01b031661065d610e6d565b6001600160a01b0316146106a35760405162461bcd60e51b815260206004820152600d60248201526c6e6f7420616d6242726964676560981b604482015260640161045e565b609a546098546040805163d67bdd2560e01b815290516001600160a01b03938416939092169163d67bdd2591600480820192602092909190829003018186803b1580156106ef57600080fd5b505afa158015610703573d6000803e3d6000fd5b505050506040513d601f19601f820116820180604052508101906107279190611667565b6001600160a01b0316146107905760405162461bcd60e51b815260206004820152602a60248201527f616d624272696467652773206d65737361676553656e646572206973206e6f74604482015269206c656d6d615844414960b01b606482015260840161045e565b6001600160a01b038316600090815260a16020526040812080548492906107b8908490611a2c565b90915550506001600160a01b038316600081815260a26020526040808220849055518492917f283ccb186d2158a2a3df1d3934d74a42589ed49c4a69081b6daa558b3040c85f91a36001600160a01b03838116600090815260a160205260409081902054609c5491516370a0823160e01b8152306004820152909291909116906370a082319060240160206040518083038186803b15801561085957600080fd5b505afa15801561086d573d6000803e3d6000fd5b505050506040513d601f19601f820116820180604052508101906108919190611797565b1061089f5761089f8361046c565b505050565b6108ac610e6d565b6001600160a01b03166108bd610a20565b6001600160a01b0316146108e35760405162461bcd60e51b815260040161045e90611986565b6033546040516000916001600160a01b0316907f8be0079c531659141344cd1fd0a4f28419497f9722a3daafe3b4186f6b6457e0908390a3603380546001600160a01b0319169055565b600054610100900460ff1680610946575060005460ff16155b6109625760405162461bcd60e51b815260040161045e90611938565b600054610100900460ff16158015610984576000805461ffff19166101011790555b61098c610fc2565b6109958361103e565b609c80546001600160a01b03199081166001600160a01b038c811691909117909255609d805482168b8416179055609a805482168a8416179055609e8054821689841617905560988054821688841617905560998054909116918616919091179055620f4240609b5560a08290558015610a15576000805461ff00191690555b505050505050505050565b6033546001600160a01b03165b90565b8060a26000610a3d610e6d565b6001600160a01b0316815260208101919091526040016000205550565b34609f6000828254610a6c9190611a2c565b909155505060a054609f541115610aba5760405162461bcd60e51b815260206004820152601260248201527113195b5b584e8818d85c081c995858da195960721b604482015260640161045e565b6040805160028082526060820183526000926020830190803683375050609d5482519293506001600160a01b031691839150600090610b0957634e487b7160e01b600052603260045260246000fd5b6001600160a01b039283166020918202929092010152609c54825191169082906001908110610b4857634e487b7160e01b600052603260045260246000fd5b6001600160a01b039283166020918202929092010152609e54604051637ff36ab560e01b81526000929190911690637ff36ab5903490610b9490879087903090600019906004016119bb565b6000604051808303818588803b158015610bad57600080fd5b505af1158015610bc1573d6000803e3d6000fd5b50505050506040513d6000823e601f3d908101601f19168201604052610bea91908101906116b7565b609c54609a548251929350610c37926001600160a01b03928316929091169084906001908110610c2a57634e487b7160e01b600052603260045260246000fd5b60200260200101516110bc565b630484a55360e11b600081610c4a610e6d565b84600181518110610c6b57634e487b7160e01b600052603260045260246000fd5b60209081029190910101516040516001600160a01b039092166024830152604482015260640160408051601f198184030181529190526020810180516001600160e01b03166001600160e01b031990931692909217909152609a54609b54919250610ce3916001600160a01b03909116908390611193565b5034610ced610e6d565b6001600160a01b03167f6c703791f399558807424f489ccd811c72b4ff0b74af547264fad7c646776df060405160405180910390a35050505050565b610d31610e6d565b6001600160a01b0316610d42610a20565b6001600160a01b031614610d685760405162461bcd60e51b815260040161045e90611986565b609b55565b610d75610e6d565b6001600160a01b0316610d86610a20565b6001600160a01b031614610dac5760405162461bcd60e51b815260040161045e90611986565b6001600160a01b038116610e115760405162461bcd60e51b815260206004820152602660248201527f4f776e61626c653a206e6577206f776e657220697320746865207a65726f206160448201526564647265737360d01b606482015260840161045e565b6033546040516001600160a01b038084169216907f8be0079c531659141344cd1fd0a4f28419497f9722a3daafe3b4186f6b6457e090600090a3603380546001600160a01b0319166001600160a01b0392909216919091179055565b6000610e77611222565b905090565b801580610f055750604051636eb1769f60e11b81523060048201526001600160a01b03838116602483015284169063dd62ed3e9060440160206040518083038186803b158015610ecb57600080fd5b505afa158015610edf573d6000803e3d6000fd5b505050506040513d601f19601f82011682018060405250810190610f039190611797565b155b610f705760405162461bcd60e51b815260206004820152603660248201527f5361666545524332303a20617070726f76652066726f6d206e6f6e2d7a65726f60448201527520746f206e6f6e2d7a65726f20616c6c6f77616e636560501b606482015260840161045e565b604080516001600160a01b038416602482015260448082018490528251808303909101815260649091019091526020810180516001600160e01b031663095ea7b360e01b17905261089f90849061124e565b600054610100900460ff1680610fdb575060005460ff16155b610ff75760405162461bcd60e51b815260040161045e90611938565b600054610100900460ff16158015611019576000805461ffff19166101011790555b611021611320565b61102961138a565b801561103b576000805461ff00191690555b50565b600054610100900460ff1680611057575060005460ff16155b6110735760405162461bcd60e51b815260040161045e90611938565b600054610100900460ff16158015611095576000805461ffff19166101011790555b61109d611320565b6110a68261144d565b80156110b8576000805461ff00191690555b5050565b6001600160a01b0382166111065760405162461bcd60e51b8152602060048201526011602482015270726563656976657220697320656d70747960781b604482015260640161045e565b609954611120906001600160a01b03858116911683610e7c565b60995460405163ad58bdd160e01b81526001600160a01b0385811660048301528481166024830152604482018490529091169063ad58bdd190606401600060405180830381600087803b15801561117657600080fd5b505af115801561118a573d6000803e3d6000fd5b50505050505050565b60985460405163dc8601b360e01b81526000916001600160a01b03169063dc8601b3906111c8908790879087906004016118f1565b602060405180830381600087803b1580156111e257600080fd5b505af11580156111f6573d6000803e3d6000fd5b505050506040513d601f19601f8201168201806040525081019061121a9190611797565b949350505050565b6065546000906001600160a01b0316331415611247575060131936013560601c610a2d565b5033610a2d565b60006112a3826040518060400160405280602081526020017f5361666545524332303a206c6f772d6c6576656c2063616c6c206661696c6564815250856001600160a01b03166114d49092919063ffffffff16565b80519091501561089f57808060200190518101906112c19190611777565b61089f5760405162461bcd60e51b815260206004820152602a60248201527f5361666545524332303a204552433230206f7065726174696f6e20646964206e6044820152691bdd081cdd58d8d9595960b21b606482015260840161045e565b600054610100900460ff1680611339575060005460ff16155b6113555760405162461bcd60e51b815260040161045e90611938565b600054610100900460ff16158015611029576000805461ffff1916610101179055801561103b576000805461ff001916905550565b600054610100900460ff16806113a3575060005460ff16155b6113bf5760405162461bcd60e51b815260040161045e90611938565b600054610100900460ff161580156113e1576000805461ffff19166101011790555b60006113eb610e6d565b603380546001600160a01b0319166001600160a01b038316908117909155604051919250906000907f8be0079c531659141344cd1fd0a4f28419497f9722a3daafe3b4186f6b6457e0908290a350801561103b576000805461ff001916905550565b600054610100900460ff1680611466575060005460ff16155b6114825760405162461bcd60e51b815260040161045e90611938565b600054610100900460ff161580156114a4576000805461ffff19166101011790555b606580546001600160a01b0319166001600160a01b03841617905580156110b8576000805461ff00191690555050565b606061121a84846000856114ea565b9392505050565b60608247101561154b5760405162461bcd60e51b815260206004820152602660248201527f416464726573733a20696e73756666696369656e742062616c616e636520666f6044820152651c8818d85b1b60d21b606482015260840161045e565b843b6115995760405162461bcd60e51b815260206004820152601d60248201527f416464726573733a2063616c6c20746f206e6f6e2d636f6e7472616374000000604482015260640161045e565b600080866001600160a01b031685876040516115b591906118d5565b60006040518083038185875af1925050503d80600081146115f2576040519150601f19603f3d011682016040523d82523d6000602084013e6115f7565b606091505b5091509150611607828286611612565b979650505050505050565b606083156116215750816114e3565b8251156116315782518084602001fd5b8160405162461bcd60e51b815260040161045e9190611925565b60006020828403121561165c578081fd5b81356114e381611a96565b600060208284031215611678578081fd5b81516114e381611a96565b600080600060608486031215611697578182fd5b83356116a281611a96565b95602085013595506040909401359392505050565b600060208083850312156116c9578182fd5b825167ffffffffffffffff808211156116e0578384fd5b818501915085601f8301126116f3578384fd5b81518181111561170557611705611a80565b8060051b604051601f19603f8301168101818110858211171561172a5761172a611a80565b604052828152858101935084860182860187018a1015611748578788fd5b8795505b8386101561176a57805185526001959095019493860193860161174c565b5098975050505050505050565b600060208284031215611788578081fd5b815180151581146114e3578182fd5b6000602082840312156117a8578081fd5b5051919050565b600080600080600080600080610100898b0312156117cb578384fd5b88356117d681611a96565b975060208901356117e681611a96565b965060408901356117f681611a96565b9550606089013561180681611a96565b9450608089013561181681611a96565b935060a089013561182681611a96565b925060c089013561183681611a96565b8092505060e089013590509295985092959890939650565b60006020828403121561185f578081fd5b5035919050565b6000815180845260208085019450808401835b8381101561189e5781516001600160a01b031687529582019590820190600101611879565b509495945050505050565b600081518084526118c1816020860160208601611a50565b601f01601f19169290920160200192915050565b600082516118e7818460208701611a50565b9190910192915050565b6001600160a01b0384168152606060208201819052600090611915908301856118a9565b9050826040830152949350505050565b6000602082526114e360208301846118a9565b6020808252602e908201527f496e697469616c697a61626c653a20636f6e747261637420697320616c72656160408201526d191e481a5b9a5d1a585b1a5e995960921b606082015260800190565b6020808252818101527f4f776e61626c653a2063616c6c6572206973206e6f7420746865206f776e6572604082015260600190565b6000858252608060208301526119d46080830186611866565b6001600160a01b03949094166040830152506060015292915050565b600086825285602083015260a06040830152611a0f60a0830186611866565b6001600160a01b0394909416606083015250608001529392505050565b60008219821115611a4b57634e487b7160e01b81526011600452602481fd5b500190565b60005b83811015611a6b578181015183820152602001611a53565b83811115611a7a576000848401525b50505050565b634e487b7160e01b600052604160045260246000fd5b6001600160a01b038116811461103b57600080fdfea26469706673582212207f3f74849150c81f6f8bb706333e3b4c73ee137ec5680b242a167c018cb9b96064736f6c63430008030033",
  "linkReferences": {},
  "deployedLinkReferences": {}
}