{
  "_format": "hh-sol-artifact-1",
  "contractName": "LemmaToken",
  "sourceName": "contracts/LemmaxDAI.sol",
  "abi": [
    {
      "anonymous": false,
      "inputs": [
        {
          "indexed": true,
          "internalType": "address",
          "name": "owner",
          "type": "address"
        },
        {
          "indexed": true,
          "internalType": "address",
          "name": "spender",
          "type": "address"
        },
        {
          "indexed": false,
          "internalType": "uint256",
          "name": "value",
          "type": "uint256"
        }
      ],
      "name": "Approval",
      "type": "event"
    },
    {
      "anonymous": false,
      "inputs": [
        {
          "indexed": true,
          "internalType": "address",
          "name": "account",
          "type": "address"
        },
        {
          "indexed": true,
          "internalType": "uint256",
          "name": "amount",
          "type": "uint256"
        }
      ],
      "name": "DepositInfoAdded",
      "type": "event"
    },
    {
      "anonymous": false,
      "inputs": [
        {
          "indexed": true,
          "internalType": "address",
          "name": "previousOwner",
          "type": "address"
        },
        {
          "indexed": true,
          "internalType": "address",
          "name": "newOwner",
          "type": "address"
        }
      ],
      "name": "OwnershipTransferred",
      "type": "event"
    },
    {
      "anonymous": false,
      "inputs": [
        {
          "indexed": true,
          "internalType": "address",
          "name": "from",
          "type": "address"
        },
        {
          "indexed": true,
          "internalType": "address",
          "name": "to",
          "type": "address"
        },
        {
          "indexed": false,
          "internalType": "uint256",
          "name": "value",
          "type": "uint256"
        }
      ],
      "name": "Transfer",
      "type": "event"
    },
    {
      "anonymous": false,
      "inputs": [
        {
          "indexed": true,
          "internalType": "address",
          "name": "account",
          "type": "address"
        },
        {
          "indexed": true,
          "internalType": "uint256",
          "name": "amount",
          "type": "uint256"
        }
      ],
      "name": "USDCDeposited",
      "type": "event"
    },
    {
      "anonymous": false,
      "inputs": [
        {
          "indexed": true,
          "internalType": "address",
          "name": "account",
          "type": "address"
        },
        {
          "indexed": true,
          "internalType": "uint256",
          "name": "amount",
          "type": "uint256"
        }
      ],
      "name": "USDCWithdrawed",
      "type": "event"
    },
    {
      "inputs": [
        {
          "internalType": "address",
          "name": "owner",
          "type": "address"
        },
        {
          "internalType": "address",
          "name": "spender",
          "type": "address"
        }
      ],
      "name": "allowance",
      "outputs": [
        {
          "internalType": "uint256",
          "name": "",
          "type": "uint256"
        }
      ],
      "stateMutability": "view",
      "type": "function"
    },
    {
      "inputs": [],
      "name": "ambBridge",
      "outputs": [
        {
          "internalType": "contract IAMB",
          "name": "",
          "type": "address"
        }
      ],
      "stateMutability": "view",
      "type": "function"
    },
    {
      "inputs": [
        {
          "internalType": "address",
          "name": "spender",
          "type": "address"
        },
        {
          "internalType": "uint256",
          "name": "amount",
          "type": "uint256"
        }
      ],
      "name": "approve",
      "outputs": [
        {
          "internalType": "bool",
          "name": "",
          "type": "bool"
        }
      ],
      "stateMutability": "nonpayable",
      "type": "function"
    },
    {
      "inputs": [
        {
          "internalType": "address",
          "name": "account",
          "type": "address"
        }
      ],
      "name": "balanceOf",
      "outputs": [
        {
          "internalType": "uint256",
          "name": "",
          "type": "uint256"
        }
      ],
      "stateMutability": "view",
      "type": "function"
    },
    {
      "inputs": [],
      "name": "collateral",
      "outputs": [
        {
          "internalType": "contract IERC20",
          "name": "",
          "type": "address"
        }
      ],
      "stateMutability": "view",
      "type": "function"
    },
    {
      "inputs": [],
      "name": "decimals",
      "outputs": [
        {
          "internalType": "uint8",
          "name": "",
          "type": "uint8"
        }
      ],
      "stateMutability": "view",
      "type": "function"
    },
    {
      "inputs": [
        {
          "internalType": "address",
          "name": "spender",
          "type": "address"
        },
        {
          "internalType": "uint256",
          "name": "subtractedValue",
          "type": "uint256"
        }
      ],
      "name": "decreaseAllowance",
      "outputs": [
        {
          "internalType": "bool",
          "name": "",
          "type": "bool"
        }
      ],
      "stateMutability": "nonpayable",
      "type": "function"
    },
    {
      "inputs": [
        {
          "internalType": "address",
          "name": "",
          "type": "address"
        }
      ],
      "name": "depositInfo",
      "outputs": [
        {
          "internalType": "uint256",
          "name": "",
          "type": "uint256"
        }
      ],
      "stateMutability": "view",
      "type": "function"
    },
    {
      "inputs": [],
      "name": "gasLimit",
      "outputs": [
        {
          "internalType": "uint256",
          "name": "",
          "type": "uint256"
        }
      ],
      "stateMutability": "view",
      "type": "function"
    },
    {
      "inputs": [
        {
          "internalType": "address",
          "name": "spender",
          "type": "address"
        },
        {
          "internalType": "uint256",
          "name": "addedValue",
          "type": "uint256"
        }
      ],
      "name": "increaseAllowance",
      "outputs": [
        {
          "internalType": "bool",
          "name": "",
          "type": "bool"
        }
      ],
      "stateMutability": "nonpayable",
      "type": "function"
    },
    {
      "inputs": [
        {
          "internalType": "contract IERC20",
          "name": "_collateral",
          "type": "address"
        },
        {
          "internalType": "contract IPerpetualProtocol",
          "name": "_perpetualProtocol",
          "type": "address"
        },
        {
          "internalType": "contract IAMB",
          "name": "_ambBridge",
          "type": "address"
        },
        {
          "internalType": "contract IMultiTokenMediator",
          "name": "_multiTokenMediator",
          "type": "address"
        },
        {
          "internalType": "address",
          "name": "trustedForwarder",
          "type": "address"
        }
      ],
      "name": "initialize",
      "outputs": [],
      "stateMutability": "nonpayable",
      "type": "function"
    },
    {
      "inputs": [
        {
          "internalType": "address",
          "name": "forwarder",
          "type": "address"
        }
      ],
      "name": "isTrustedForwarder",
      "outputs": [
        {
          "internalType": "bool",
          "name": "",
          "type": "bool"
        }
      ],
      "stateMutability": "view",
      "type": "function"
    },
    {
      "inputs": [],
      "name": "lemmaMainnet",
      "outputs": [
        {
          "internalType": "contract ILemmaMainnet",
          "name": "",
          "type": "address"
        }
      ],
      "stateMutability": "view",
      "type": "function"
    },
    {
      "inputs": [
        {
          "internalType": "address",
          "name": "_account",
          "type": "address"
        }
      ],
      "name": "mint",
      "outputs": [],
      "stateMutability": "nonpayable",
      "type": "function"
    },
    {
      "inputs": [],
      "name": "multiTokenMediator",
      "outputs": [
        {
          "internalType": "contract IMultiTokenMediator",
          "name": "",
          "type": "address"
        }
      ],
      "stateMutability": "view",
      "type": "function"
    },
    {
      "inputs": [],
      "name": "name",
      "outputs": [
        {
          "internalType": "string",
          "name": "",
          "type": "string"
        }
      ],
      "stateMutability": "view",
      "type": "function"
    },
    {
      "inputs": [
        {
          "internalType": "address",
          "name": "from",
          "type": "address"
        },
        {
          "internalType": "uint256",
          "name": "amount",
          "type": "uint256"
        },
        {
          "internalType": "bytes",
          "name": "data",
          "type": "bytes"
        }
      ],
      "name": "onTokenTransfer",
      "outputs": [
        {
          "internalType": "bool",
          "name": "",
          "type": "bool"
        }
      ],
      "stateMutability": "nonpayable",
      "type": "function"
    },
    {
      "inputs": [],
      "name": "owner",
      "outputs": [
        {
          "internalType": "address",
          "name": "",
          "type": "address"
        }
      ],
      "stateMutability": "view",
      "type": "function"
    },
    {
      "inputs": [],
      "name": "perpetualProtocol",
      "outputs": [
        {
          "internalType": "contract IPerpetualProtocol",
          "name": "",
          "type": "address"
        }
      ],
      "stateMutability": "view",
      "type": "function"
    },
    {
      "inputs": [],
      "name": "renounceOwnership",
      "outputs": [],
      "stateMutability": "nonpayable",
      "type": "function"
    },
    {
      "inputs": [
        {
          "internalType": "address",
          "name": "_account",
          "type": "address"
        },
        {
          "internalType": "uint256",
          "name": "_amount",
          "type": "uint256"
        }
      ],
      "name": "setDepositInfo",
      "outputs": [],
      "stateMutability": "nonpayable",
      "type": "function"
    },
    {
      "inputs": [
        {
          "internalType": "uint256",
          "name": "_gasLimit",
          "type": "uint256"
        }
      ],
      "name": "setGasLimit",
      "outputs": [],
      "stateMutability": "nonpayable",
      "type": "function"
    },
    {
      "inputs": [
        {
          "internalType": "contract ILemmaMainnet",
          "name": "_lemmaMainnet",
          "type": "address"
        }
      ],
      "name": "setLemmaMainnet",
      "outputs": [],
      "stateMutability": "nonpayable",
      "type": "function"
    },
    {
      "inputs": [],
      "name": "symbol",
      "outputs": [
        {
          "internalType": "string",
          "name": "",
          "type": "string"
        }
      ],
      "stateMutability": "view",
      "type": "function"
    },
    {
      "inputs": [],
      "name": "totalSupply",
      "outputs": [
        {
          "internalType": "uint256",
          "name": "",
          "type": "uint256"
        }
      ],
      "stateMutability": "view",
      "type": "function"
    },
    {
      "inputs": [
        {
          "internalType": "address",
          "name": "recipient",
          "type": "address"
        },
        {
          "internalType": "uint256",
          "name": "amount",
          "type": "uint256"
        }
      ],
      "name": "transfer",
      "outputs": [
        {
          "internalType": "bool",
          "name": "",
          "type": "bool"
        }
      ],
      "stateMutability": "nonpayable",
      "type": "function"
    },
    {
      "inputs": [
        {
          "internalType": "address",
          "name": "sender",
          "type": "address"
        },
        {
          "internalType": "address",
          "name": "recipient",
          "type": "address"
        },
        {
          "internalType": "uint256",
          "name": "amount",
          "type": "uint256"
        }
      ],
      "name": "transferFrom",
      "outputs": [
        {
          "internalType": "bool",
          "name": "",
          "type": "bool"
        }
      ],
      "stateMutability": "nonpayable",
      "type": "function"
    },
    {
      "inputs": [
        {
          "internalType": "address",
          "name": "newOwner",
          "type": "address"
        }
      ],
      "name": "transferOwnership",
      "outputs": [],
      "stateMutability": "nonpayable",
      "type": "function"
    },
    {
      "inputs": [
        {
          "internalType": "uint256",
          "name": "_amount",
          "type": "uint256"
        }
      ],
      "name": "withdraw",
      "outputs": [],
      "stateMutability": "nonpayable",
      "type": "function"
    }
  ],
  "bytecode": "0x608060405234801561001057600080fd5b5061230e806100206000396000f3fe608060405234801561001057600080fd5b50600436106101cf5760003560e01c80636344598911610104578063a457c2d7116100a2578063dd62ed3e11610071578063dd62ed3e146103fe578063ee7d72b414610437578063f2fde38b1461044a578063f68016b71461045d576101cf565b8063a457c2d7146103ad578063a4c0ed36146103c0578063a9059cbb146103d8578063d8dfeb45146103eb576101cf565b806370a08231116100de57806370a0823114610363578063715018a61461038c5780638da5cb5b1461039457806395d89b41146103a5576101cf565b8063634459891461031d57806368981a3a1461033d5780636a62784214610350576101cf565b80632e1a7d4d11610171578063395093511161014b57806339509351146102c257806347c25ce9146102d55780634ce0d821146102e8578063572b6c05146102fb576101cf565b80632e1a7d4d1461028d578063313ce567146102a057806336bb10d8146102af576101cf565b80630ba54df6116101ad5780630ba54df61461022a5780631459457a1461025557806318160ddd1461026857806323b872dd1461027a576101cf565b806306fdde03146101d457806309094aa6146101f2578063095ea7b314610207575b600080fd5b6101dc610466565b6040516101e9919061213e565b60405180910390f35b610205610200366004611f53565b6104f9565b005b61021a610215366004611f53565b6106bd565b60405190151581526020016101e9565b60cc5461023d906001600160a01b031681565b6040516001600160a01b0390911681526020016101e9565b61020561026336600461203a565b6106da565b6035545b6040519081526020016101e9565b61021a610288366004611f13565b6107fe565b61020561029b3660046120aa565b6108d8565b604051601281526020016101e9565b60ce5461023d906001600160a01b031681565b61021a6102d0366004611f53565b610aed565b60cb5461023d906001600160a01b031681565b6102056102f6366004611ea3565b610b3c565b61021a610309366004611ea3565b6097546001600160a01b0390811691161490565b61026c61032b366004611ea3565b60d06020526000908152604090205481565b60cd5461023d906001600160a01b031681565b61020561035e366004611ea3565b610ba7565b61026c610371366004611ea3565b6001600160a01b031660009081526033602052604090205490565b610205610d51565b6065546001600160a01b031661023d565b6101dc610de4565b61021a6103bb366004611f53565b610df3565b61021a6103ce366004611f7e565b6000949350505050565b61021a6103e6366004611f53565b610eac565b60ca5461023d906001600160a01b031681565b61026c61040c366004611edb565b6001600160a01b03918216600090815260346020908152604080832093909416825291909152205490565b6102056104453660046120aa565b610ec0565b610205610458366004611ea3565b610f0e565b61026c60cf5481565b60606036805461047590612272565b80601f01602080910402602001604051908101604052809291908181526020018280546104a190612272565b80156104ee5780601f106104c3576101008083540402835291602001916104ee565b820191906000526020600020905b8154815290600101906020018083116104d157829003601f168201915b505050505090505b90565b60cc546001600160a01b031661050d611018565b6001600160a01b03161461052057600080fd5b60ce5460cc546040805163d67bdd2560e01b815290516001600160a01b03938416939092169163d67bdd2591600480820192602092909190829003018186803b15801561056c57600080fd5b505afa158015610580573d6000803e3d6000fd5b505050506040513d601f19601f820116820180604052508101906105a49190611ebf565b6001600160a01b0316146105b757600080fd5b6001600160a01b038216600090815260d06020526040812080548392906105df9084906121d4565b909155505060405181906001600160a01b038416907f258c1a27feacd8cf5c66ca239e7cb5dfe8b6668ef7a881673ef13581cbf6f5ee90600090a36001600160a01b03828116600090815260d06020526040908190205460ca5491516370a0823160e01b8152306004820152909291909116906370a082319060240160206040518083038186803b15801561067357600080fd5b505afa158015610687573d6000803e3d6000fd5b505050506040513d601f19601f820116820180604052508101906106ab9190612022565b106106b9576106b982610ba7565b5050565b60006106d16106ca611018565b8484611027565b50600192915050565b600054610100900460ff16806106f3575060005460ff16155b6107185760405162461bcd60e51b815260040161070f90612151565b60405180910390fd5b600054610100900460ff1615801561073a576000805461ffff19166101011790555b61074261114c565b61078a6040518060400160405280600981526020016813195b5b585554d11560ba1b81525060405180604001604052806005815260200164131554d11560da1b8152506111c8565b61079382611248565b60ca80546001600160a01b038089166001600160a01b03199283161790925560cb805488841690831617905560cc805487841690831617905560cd805492861692909116919091179055620f424060cf5580156107f6576000805461ff00191690555b505050505050565b600061080b8484846112c5565b6001600160a01b03841660009081526034602052604081208161082c611018565b6001600160a01b03166001600160a01b03168152602001908152602001600020549050828110156108b05760405162461bcd60e51b815260206004820152602860248201527f45524332303a207472616e7366657220616d6f756e74206578636565647320616044820152676c6c6f77616e636560c01b606482015260840161070f565b6108cb856108bc611018565b6108c6868561222b565b611027565b60019150505b9392505050565b60006108e360355490565b60cb5460408051630d6eb59160e41b8152905185926001600160a01b03169163d6eb5910916004808301926020929190829003018186803b15801561092757600080fd5b505afa15801561093b573d6000803e3d6000fd5b505050506040513d601f19601f8201168201806040525081019061095f9190612022565b610969919061220c565b61097391906121ec565b9050610986610980611018565b8361149d565b60cb54604051630575f5a760e11b8152600481018390526000916001600160a01b031690630aebeb4e90602401602060405180830381600087803b1580156109cd57600080fd5b505af11580156109e1573d6000803e3d6000fd5b505050506040513d601f19601f82011682018060405250810190610a059190612022565b60ca5460ce54919250610a25916001600160a01b039182169116836115ec565b631385ed9360e21b600081610a38611018565b6040516001600160a01b0390911660248201526044810185905260640160408051601f198184030181529190526020810180516001600160e01b03166001600160e01b03199093169290921790915260ce5460cf54919250610aa7916001600160a01b039091169083906116c3565b5082610ab1611018565b6001600160a01b03167fce6a88f95a8d322c08c27a31690ee58c2d068c30e2931ad8881b9d9cfff5713560405160405180910390a35050505050565b60006106d1610afa611018565b848460346000610b08611018565b6001600160a01b03908116825260208083019390935260409182016000908120918b16815292529020546108c691906121d4565b610b44611018565b6001600160a01b0316610b5f6065546001600160a01b031690565b6001600160a01b031614610b855760405162461bcd60e51b815260040161070f9061219f565b60ce80546001600160a01b0319166001600160a01b0392909216919091179055565b6001600160a01b038116600090815260d06020526040812080549082905590610bcf60355490565b15610c7f5760cb60009054906101000a90046001600160a01b03166001600160a01b031663d6eb59106040518163ffffffff1660e01b815260040160206040518083038186803b158015610c2257600080fd5b505afa158015610c36573d6000803e3d6000fd5b505050506040513d601f19601f82011682018060405250810190610c5a9190612022565b82610c6460355490565b610c6e919061220c565b610c7891906121ec565b9050610c91565b610c8e8264e8d4a5100061220c565b90505b610c9b8382611752565b60cb5460ca54610cb8916001600160a01b03918216911684611831565b60cb5460405163690e7c0960e01b8152600481018490526001600160a01b039091169063690e7c0990602401600060405180830381600087803b158015610cfe57600080fd5b505af1158015610d12573d6000803e3d6000fd5b50506040518492506001600160a01b03861691507f80ecc532cf2e08856601df42646970d676a686d8eeacbfd2038fae4ff288da5690600090a3505050565b610d59611018565b6001600160a01b0316610d746065546001600160a01b031690565b6001600160a01b031614610d9a5760405162461bcd60e51b815260040161070f9061219f565b6065546040516000916001600160a01b0316907f8be0079c531659141344cd1fd0a4f28419497f9722a3daafe3b4186f6b6457e0908390a3606580546001600160a01b0319169055565b60606037805461047590612272565b60008060346000610e02611018565b6001600160a01b0390811682526020808301939093526040918201600090812091881681529252902054905082811015610e8c5760405162461bcd60e51b815260206004820152602560248201527f45524332303a2064656372656173656420616c6c6f77616e63652062656c6f77604482015264207a65726f60d81b606482015260840161070f565b610ea2610e97611018565b856108c6868561222b565b5060019392505050565b60006106d1610eb9611018565b84846112c5565b610ec8611018565b6001600160a01b0316610ee36065546001600160a01b031690565b6001600160a01b031614610f095760405162461bcd60e51b815260040161070f9061219f565b60cf55565b610f16611018565b6001600160a01b0316610f316065546001600160a01b031690565b6001600160a01b031614610f575760405162461bcd60e51b815260040161070f9061219f565b6001600160a01b038116610fbc5760405162461bcd60e51b815260206004820152602660248201527f4f776e61626c653a206e6577206f776e657220697320746865207a65726f206160448201526564647265737360d01b606482015260840161070f565b6065546040516001600160a01b038084169216907f8be0079c531659141344cd1fd0a4f28419497f9722a3daafe3b4186f6b6457e090600090a3606580546001600160a01b0319166001600160a01b0392909216919091179055565b6000611022611894565b905090565b6001600160a01b0383166110895760405162461bcd60e51b8152602060048201526024808201527f45524332303a20617070726f76652066726f6d20746865207a65726f206164646044820152637265737360e01b606482015260840161070f565b6001600160a01b0382166110ea5760405162461bcd60e51b815260206004820152602260248201527f45524332303a20617070726f766520746f20746865207a65726f206164647265604482015261737360f01b606482015260840161070f565b6001600160a01b0383811660008181526034602090815260408083209487168084529482529182902085905590518481527f8c5be1e5ebec7d5bd14f71427d1e84f3dd0314c0f7b2291e5b200ac8c7c3b92591015b60405180910390a3505050565b600054610100900460ff1680611165575060005460ff16155b6111815760405162461bcd60e51b815260040161070f90612151565b600054610100900460ff161580156111a3576000805461ffff19166101011790555b6111ab6118c0565b6111b361192a565b80156111c5576000805461ff00191690555b50565b600054610100900460ff16806111e1575060005460ff16155b6111fd5760405162461bcd60e51b815260040161070f90612151565b600054610100900460ff1615801561121f576000805461ffff19166101011790555b6112276118c0565b61123183836119ed565b8015611243576000805461ff00191690555b505050565b600054610100900460ff1680611261575060005460ff16155b61127d5760405162461bcd60e51b815260040161070f90612151565b600054610100900460ff1615801561129f576000805461ffff19166101011790555b6112a76118c0565b6112b082611a82565b80156106b9576000805461ff00191690555050565b6001600160a01b0383166113295760405162461bcd60e51b815260206004820152602560248201527f45524332303a207472616e736665722066726f6d20746865207a65726f206164604482015264647265737360d81b606482015260840161070f565b6001600160a01b03821661138b5760405162461bcd60e51b815260206004820152602360248201527f45524332303a207472616e7366657220746f20746865207a65726f206164647260448201526265737360e81b606482015260840161070f565b6001600160a01b038316600090815260336020526040902054818110156114035760405162461bcd60e51b815260206004820152602660248201527f45524332303a207472616e7366657220616d6f756e7420657863656564732062604482015265616c616e636560d01b606482015260840161070f565b61140d828261222b565b6001600160a01b0380861660009081526033602052604080822093909355908516815290812080548492906114439084906121d4565b92505081905550826001600160a01b0316846001600160a01b03167fddf252ad1be2c89b69c2b068fc378daa952ba7f163c4a11628f55a4df523b3ef8460405161148f91815260200190565b60405180910390a350505050565b6001600160a01b0382166114fd5760405162461bcd60e51b815260206004820152602160248201527f45524332303a206275726e2066726f6d20746865207a65726f206164647265736044820152607360f81b606482015260840161070f565b6001600160a01b038216600090815260336020526040902054818110156115715760405162461bcd60e51b815260206004820152602260248201527f45524332303a206275726e20616d6f756e7420657863656564732062616c616e604482015261636560f01b606482015260840161070f565b61157b828261222b565b6001600160a01b038416600090815260336020526040812091909155603580548492906115a990849061222b565b90915550506040518281526000906001600160a01b038516907fddf252ad1be2c89b69c2b068fc378daa952ba7f163c4a11628f55a4df523b3ef9060200161113f565b6001600160a01b0382166116365760405162461bcd60e51b8152602060048201526011602482015270726563656976657220697320656d70747960781b604482015260640161070f565b60cd54611650906001600160a01b03858116911683611b09565b60cd5460405163ad58bdd160e01b81526001600160a01b0385811660048301528481166024830152604482018490529091169063ad58bdd190606401600060405180830381600087803b1580156116a657600080fd5b505af11580156116ba573d6000803e3d6000fd5b50505050505050565b60cc5460405163dc8601b360e01b81526000916001600160a01b03169063dc8601b3906116f89087908790879060040161210a565b602060405180830381600087803b15801561171257600080fd5b505af1158015611726573d6000803e3d6000fd5b505050506040513d601f19601f8201168201806040525081019061174a9190612022565b949350505050565b6001600160a01b0382166117a85760405162461bcd60e51b815260206004820152601f60248201527f45524332303a206d696e7420746f20746865207a65726f206164647265737300604482015260640161070f565b80603560008282546117ba91906121d4565b90915550506001600160a01b038216600090815260336020526040812080548392906117e79084906121d4565b90915550506040518181526001600160a01b038316906000907fddf252ad1be2c89b69c2b068fc378daa952ba7f163c4a11628f55a4df523b3ef9060200160405180910390a35050565b6040516001600160a01b03831660248201526044810182905261124390849063a9059cbb60e01b906064015b60408051601f198184030181529190526020810180516001600160e01b03166001600160e01b031990931692909217909152611c2d565b6097546000906001600160a01b03163314156118b9575060131936013560601c6104f6565b50336104f6565b600054610100900460ff16806118d9575060005460ff16155b6118f55760405162461bcd60e51b815260040161070f90612151565b600054610100900460ff161580156111b3576000805461ffff191661010117905580156111c5576000805461ff001916905550565b600054610100900460ff1680611943575060005460ff16155b61195f5760405162461bcd60e51b815260040161070f90612151565b600054610100900460ff16158015611981576000805461ffff19166101011790555b600061198b611018565b606580546001600160a01b0319166001600160a01b038316908117909155604051919250906000907f8be0079c531659141344cd1fd0a4f28419497f9722a3daafe3b4186f6b6457e0908290a35080156111c5576000805461ff001916905550565b600054610100900460ff1680611a06575060005460ff16155b611a225760405162461bcd60e51b815260040161070f90612151565b600054610100900460ff16158015611a44576000805461ffff19166101011790555b8251611a57906036906020860190611e0a565b508151611a6b906037906020850190611e0a565b508015611243576000805461ff0019169055505050565b600054610100900460ff1680611a9b575060005460ff16155b611ab75760405162461bcd60e51b815260040161070f90612151565b600054610100900460ff16158015611ad9576000805461ffff19166101011790555b609780546001600160a01b0319166001600160a01b03841617905580156106b9576000805461ff00191690555050565b801580611b925750604051636eb1769f60e11b81523060048201526001600160a01b03838116602483015284169063dd62ed3e9060440160206040518083038186803b158015611b5857600080fd5b505afa158015611b6c573d6000803e3d6000fd5b505050506040513d601f19601f82011682018060405250810190611b909190612022565b155b611bfd5760405162461bcd60e51b815260206004820152603660248201527f5361666545524332303a20617070726f76652066726f6d206e6f6e2d7a65726f60448201527520746f206e6f6e2d7a65726f20616c6c6f77616e636560501b606482015260840161070f565b6040516001600160a01b03831660248201526044810182905261124390849063095ea7b360e01b9060640161185d565b6000611c82826040518060400160405280602081526020017f5361666545524332303a206c6f772d6c6576656c2063616c6c206661696c6564815250856001600160a01b0316611cff9092919063ffffffff16565b8051909150156112435780806020019051810190611ca09190612002565b6112435760405162461bcd60e51b815260206004820152602a60248201527f5361666545524332303a204552433230206f7065726174696f6e20646964206e6044820152691bdd081cdd58d8d9595960b21b606482015260840161070f565b606061174a848460008585843b611d585760405162461bcd60e51b815260206004820152601d60248201527f416464726573733a2063616c6c20746f206e6f6e2d636f6e7472616374000000604482015260640161070f565b600080866001600160a01b03168587604051611d7491906120ee565b60006040518083038185875af1925050503d8060008114611db1576040519150601f19603f3d011682016040523d82523d6000602084013e611db6565b606091505b5091509150611dc6828286611dd1565b979650505050505050565b60608315611de05750816108d1565b825115611df05782518084602001fd5b8160405162461bcd60e51b815260040161070f919061213e565b828054611e1690612272565b90600052602060002090601f016020900481019282611e385760008555611e7e565b82601f10611e5157805160ff1916838001178555611e7e565b82800160010185558215611e7e579182015b82811115611e7e578251825591602001919060010190611e63565b50611e8a929150611e8e565b5090565b5b80821115611e8a5760008155600101611e8f565b600060208284031215611eb4578081fd5b81356108d1816122c3565b600060208284031215611ed0578081fd5b81516108d1816122c3565b60008060408385031215611eed578081fd5b8235611ef8816122c3565b91506020830135611f08816122c3565b809150509250929050565b600080600060608486031215611f27578081fd5b8335611f32816122c3565b92506020840135611f42816122c3565b929592945050506040919091013590565b60008060408385031215611f65578182fd5b8235611f70816122c3565b946020939093013593505050565b60008060008060608587031215611f93578081fd5b8435611f9e816122c3565b935060208501359250604085013567ffffffffffffffff80821115611fc1578283fd5b818701915087601f830112611fd4578283fd5b813581811115611fe2578384fd5b886020828501011115611ff3578384fd5b95989497505060200194505050565b600060208284031215612013578081fd5b815180151581146108d1578182fd5b600060208284031215612033578081fd5b5051919050565b600080600080600060a08688031215612051578081fd5b853561205c816122c3565b9450602086013561206c816122c3565b9350604086013561207c816122c3565b9250606086013561208c816122c3565b9150608086013561209c816122c3565b809150509295509295909350565b6000602082840312156120bb578081fd5b5035919050565b600081518084526120da816020860160208601612242565b601f01601f19169290920160200192915050565b60008251612100818460208701612242565b9190910192915050565b6001600160a01b038416815260606020820181905260009061212e908301856120c2565b9050826040830152949350505050565b6000602082526108d160208301846120c2565b6020808252602e908201527f496e697469616c697a61626c653a20636f6e747261637420697320616c72656160408201526d191e481a5b9a5d1a585b1a5e995960921b606082015260800190565b6020808252818101527f4f776e61626c653a2063616c6c6572206973206e6f7420746865206f776e6572604082015260600190565b600082198211156121e7576121e76122ad565b500190565b60008261220757634e487b7160e01b81526012600452602481fd5b500490565b6000816000190483118215151615612226576122266122ad565b500290565b60008282101561223d5761223d6122ad565b500390565b60005b8381101561225d578181015183820152602001612245565b8381111561226c576000848401525b50505050565b600181811c9082168061228657607f821691505b602082108114156122a757634e487b7160e01b600052602260045260246000fd5b50919050565b634e487b7160e01b600052601160045260246000fd5b6001600160a01b03811681146111c557600080fdfea2646970667358221220ba2a372dd2f11602e99385b62191fad9cff884fba1f15b8c1c97e9877554b97164736f6c63430008030033",
  "linkReferences": {},
  "deployedLinkReferences": {}
}