{
  "_format": "hh-sol-artifact-1",
  "contractName": "LemmaToken",
  "sourceName": "contracts/LemmaToken.sol",
  "abi": [
    {
      "inputs": [
        {
          "internalType": "contract IERC20",
          "name": "_collateral",
          "type": "address"
        },
        {
          "internalType": "contract IERC20",
          "name": "_underlyingAsset",
          "type": "address"
        },
        {
          "internalType": "contract IPerpetualProtocol",
          "name": "_perpetualProtocol",
          "type": "address"
        },
        {
          "internalType": "contract IDEX",
          "name": "_dex",
          "type": "address"
        }
      ],
      "stateMutability": "nonpayable",
      "type": "constructor"
    },
    {
      "anonymous": false,
      "inputs": [
        {
          "indexed": true,
          "internalType": "address",
          "name": "owner",
          "type": "address"
        },
        {
          "indexed": true,
          "internalType": "address",
          "name": "spender",
          "type": "address"
        },
        {
          "indexed": false,
          "internalType": "uint256",
          "name": "value",
          "type": "uint256"
        }
      ],
      "name": "Approval",
      "type": "event"
    },
    {
      "anonymous": false,
      "inputs": [
        {
          "indexed": true,
          "internalType": "address",
          "name": "from",
          "type": "address"
        },
        {
          "indexed": true,
          "internalType": "address",
          "name": "to",
          "type": "address"
        },
        {
          "indexed": false,
          "internalType": "uint256",
          "name": "value",
          "type": "uint256"
        }
      ],
      "name": "Transfer",
      "type": "event"
    },
    {
      "inputs": [
        {
          "internalType": "address",
          "name": "owner",
          "type": "address"
        },
        {
          "internalType": "address",
          "name": "spender",
          "type": "address"
        }
      ],
      "name": "allowance",
      "outputs": [
        {
          "internalType": "uint256",
          "name": "",
          "type": "uint256"
        }
      ],
      "stateMutability": "view",
      "type": "function"
    },
    {
      "inputs": [
        {
          "internalType": "address",
          "name": "spender",
          "type": "address"
        },
        {
          "internalType": "uint256",
          "name": "amount",
          "type": "uint256"
        }
      ],
      "name": "approve",
      "outputs": [
        {
          "internalType": "bool",
          "name": "",
          "type": "bool"
        }
      ],
      "stateMutability": "nonpayable",
      "type": "function"
    },
    {
      "inputs": [
        {
          "internalType": "address",
          "name": "account",
          "type": "address"
        }
      ],
      "name": "balanceOf",
      "outputs": [
        {
          "internalType": "uint256",
          "name": "",
          "type": "uint256"
        }
      ],
      "stateMutability": "view",
      "type": "function"
    },
    {
      "inputs": [],
      "name": "collateral",
      "outputs": [
        {
          "internalType": "contract IERC20",
          "name": "",
          "type": "address"
        }
      ],
      "stateMutability": "view",
      "type": "function"
    },
    {
      "inputs": [],
      "name": "decimals",
      "outputs": [
        {
          "internalType": "uint8",
          "name": "",
          "type": "uint8"
        }
      ],
      "stateMutability": "view",
      "type": "function"
    },
    {
      "inputs": [
        {
          "internalType": "address",
          "name": "spender",
          "type": "address"
        },
        {
          "internalType": "uint256",
          "name": "subtractedValue",
          "type": "uint256"
        }
      ],
      "name": "decreaseAllowance",
      "outputs": [
        {
          "internalType": "bool",
          "name": "",
          "type": "bool"
        }
      ],
      "stateMutability": "nonpayable",
      "type": "function"
    },
    {
      "inputs": [],
      "name": "dex",
      "outputs": [
        {
          "internalType": "contract IDEX",
          "name": "",
          "type": "address"
        }
      ],
      "stateMutability": "view",
      "type": "function"
    },
    {
      "inputs": [
        {
          "internalType": "address",
          "name": "spender",
          "type": "address"
        },
        {
          "internalType": "uint256",
          "name": "addedValue",
          "type": "uint256"
        }
      ],
      "name": "increaseAllowance",
      "outputs": [
        {
          "internalType": "bool",
          "name": "",
          "type": "bool"
        }
      ],
      "stateMutability": "nonpayable",
      "type": "function"
    },
    {
      "inputs": [
        {
          "internalType": "uint256",
          "name": "_amount",
          "type": "uint256"
        }
      ],
      "name": "mint",
      "outputs": [],
      "stateMutability": "nonpayable",
      "type": "function"
    },
    {
      "inputs": [],
      "name": "name",
      "outputs": [
        {
          "internalType": "string",
          "name": "",
          "type": "string"
        }
      ],
      "stateMutability": "view",
      "type": "function"
    },
    {
      "inputs": [
        {
          "internalType": "address",
          "name": "from",
          "type": "address"
        },
        {
          "internalType": "uint256",
          "name": "amount",
          "type": "uint256"
        },
        {
          "internalType": "bytes",
          "name": "data",
          "type": "bytes"
        }
      ],
      "name": "onTokenTransfer",
      "outputs": [
        {
          "internalType": "bool",
          "name": "",
          "type": "bool"
        }
      ],
      "stateMutability": "nonpayable",
      "type": "function"
    },
    {
      "inputs": [],
      "name": "perpetualProtocol",
      "outputs": [
        {
          "internalType": "contract IPerpetualProtocol",
          "name": "",
          "type": "address"
        }
      ],
      "stateMutability": "view",
      "type": "function"
    },
    {
      "inputs": [
        {
          "internalType": "uint256",
          "name": "_amount",
          "type": "uint256"
        }
      ],
      "name": "redeem",
      "outputs": [],
      "stateMutability": "nonpayable",
      "type": "function"
    },
    {
      "inputs": [],
      "name": "symbol",
      "outputs": [
        {
          "internalType": "string",
          "name": "",
          "type": "string"
        }
      ],
      "stateMutability": "view",
      "type": "function"
    },
    {
      "inputs": [],
      "name": "totalCollateralDeposited",
      "outputs": [
        {
          "internalType": "uint256",
          "name": "",
          "type": "uint256"
        }
      ],
      "stateMutability": "view",
      "type": "function"
    },
    {
      "inputs": [],
      "name": "totalSupply",
      "outputs": [
        {
          "internalType": "uint256",
          "name": "",
          "type": "uint256"
        }
      ],
      "stateMutability": "view",
      "type": "function"
    },
    {
      "inputs": [],
      "name": "totalUnderlyingAssetBought",
      "outputs": [
        {
          "internalType": "uint256",
          "name": "",
          "type": "uint256"
        }
      ],
      "stateMutability": "view",
      "type": "function"
    },
    {
      "inputs": [
        {
          "internalType": "address",
          "name": "recipient",
          "type": "address"
        },
        {
          "internalType": "uint256",
          "name": "amount",
          "type": "uint256"
        }
      ],
      "name": "transfer",
      "outputs": [
        {
          "internalType": "bool",
          "name": "",
          "type": "bool"
        }
      ],
      "stateMutability": "nonpayable",
      "type": "function"
    },
    {
      "inputs": [
        {
          "internalType": "address",
          "name": "sender",
          "type": "address"
        },
        {
          "internalType": "address",
          "name": "recipient",
          "type": "address"
        },
        {
          "internalType": "uint256",
          "name": "amount",
          "type": "uint256"
        }
      ],
      "name": "transferFrom",
      "outputs": [
        {
          "internalType": "bool",
          "name": "",
          "type": "bool"
        }
      ],
      "stateMutability": "nonpayable",
      "type": "function"
    },
    {
      "inputs": [],
      "name": "underlyingAsset",
      "outputs": [
        {
          "internalType": "contract IERC20",
          "name": "",
          "type": "address"
        }
      ],
      "stateMutability": "view",
      "type": "function"
    }
  ],
  "bytecode": "0x6080604052600580546001600160a01b031990811673e0b887d54e71329318a036cf50f30dbe4444563c179091556006805490911673359eaf429cd6114c6fcb263db04586ad59177cac1790553480156200005957600080fd5b5060405162001888380380620018888339810160408190526200007c91620001dd565b604080518082018252600981526813195b5b585554d11560ba1b602080830191825283518085019094526005845264131554d11560da1b908401528151919291620000ca9160039162000137565b508051620000e090600490602084019062000137565b5050600580546001600160a01b039687166001600160a01b0319918216179091556006805495871695821695909517909455506007805492851692841692909217909155600880549190931691161790556200029a565b828054620001459062000244565b90600052602060002090601f016020900481019282620001695760008555620001b4565b82601f106200018457805160ff1916838001178555620001b4565b82800160010185558215620001b4579182015b82811115620001b457825182559160200191906001019062000197565b50620001c2929150620001c6565b5090565b5b80821115620001c25760008155600101620001c7565b60008060008060808587031215620001f3578384fd5b8451620002008162000281565b6020860151909450620002138162000281565b6040860151909350620002268162000281565b6060860151909250620002398162000281565b939692955090935050565b600181811c908216806200025957607f821691505b602082108114156200027b57634e487b7160e01b600052602260045260246000fd5b50919050565b6001600160a01b03811681146200029757600080fd5b50565b6115de80620002aa6000396000f3fe608060405234801561001057600080fd5b506004361061012c5760003560e01c80638b95b26b116100ad578063a9059cbb11610071578063a9059cbb1461026e578063a9de314914610281578063d8dfeb451461028a578063db006a751461029d578063dd62ed3e146102b05761012c565b80638b95b26b1461021d57806395d89b4114610226578063a0712d681461022e578063a457c2d714610243578063a4c0ed36146102565761012c565b806339509351116100f457806339509351146101a657806347c25ce9146101b9578063692058c2146101e457806370a08231146101f75780637158da7c1461020a5761012c565b806306fdde0314610131578063095ea7b31461014f57806318160ddd1461017257806323b872dd14610184578063313ce56714610197575b600080fd5b6101396102e9565b6040516101469190611496565b60405180910390f35b61016261015d36600461139b565b61037b565b6040519015158152602001610146565b6002545b604051908152602001610146565b610162610192366004611360565b610391565b60405160128152602001610146565b6101626101b436600461139b565b610447565b6007546101cc906001600160a01b031681565b6040516001600160a01b039091168152602001610146565b6008546101cc906001600160a01b031681565b61017661020536600461130d565b61047e565b6006546101cc906001600160a01b031681565b610176600a5481565b61013961049d565b61024161023c366004611466565b6104ac565b005b61016261025136600461139b565b610905565b6101626102643660046113c4565b6000949350505050565b61016261027c36600461139b565b6109a0565b61017660095481565b6005546101cc906001600160a01b031681565b6102416102ab366004611466565b6109ad565b6101766102be36600461132e565b6001600160a01b03918216600090815260016020908152604080832093909416825291909152205490565b6060600380546102f890611557565b80601f016020809104026020016040519081016040528092919081815260200182805461032490611557565b80156103715780601f1061034657610100808354040283529160200191610371565b820191906000526020600020905b81548152906001019060200180831161035457829003601f168201915b5050505050905090565b6000610388338484610dcb565b50600192915050565b600061039e848484610ef0565b6001600160a01b0384166000908152600160209081526040808320338452909152902054828110156104285760405162461bcd60e51b815260206004820152602860248201527f45524332303a207472616e7366657220616d6f756e74206578636565647320616044820152676c6c6f77616e636560c01b60648201526084015b60405180910390fd5b61043c85336104378685611540565b610dcb565b506001949350505050565b3360008181526001602090815260408083206001600160a01b038716845290915281205490916103889185906104379086906114e9565b6001600160a01b0381166000908152602081905260409020545b919050565b6060600480546102f890611557565b6005546040516323b872dd60e01b8152336004820152306024820152604481018390526001600160a01b03909116906323b872dd90606401602060405180830381600087803b1580156104fe57600080fd5b505af1158015610512573d6000803e3d6000fd5b505050506040513d601f19601f820116820180604052508101906105369190611446565b506000610544600283611501565b9050600061055160025490565b1561060157600760009054906101000a90046001600160a01b03166001600160a01b031663d6eb59106040518163ffffffff1660e01b815260040160206040518083038186803b1580156105a457600080fd5b505afa1580156105b8573d6000803e3d6000fd5b505050506040513d601f19601f820116820180604052508101906105dc919061147e565b826105e660025490565b6105f09190611521565b6105fa9190611501565b905061061e565b61060c826002611521565b61061b9064e8d4a51000611521565b90505b61062833826110c8565b600754604051634acc79ed60e01b8152600481018490526000916001600160a01b031690634acc79ed9060240160206040518083038186803b15801561066d57600080fd5b505afa158015610681573d6000803e3d6000fd5b505050506040513d601f19601f820116820180604052508101906106a5919061147e565b6005546007549192506001600160a01b039081169163a9059cbb91166106cb84876114e9565b6040516001600160e01b031960e085901b1681526001600160a01b0390921660048301526024820152604401602060405180830381600087803b15801561071157600080fd5b505af1158015610725573d6000803e3d6000fd5b505050506040513d601f19601f820116820180604052508101906107499190611446565b5060075460405163690e7c0960e01b8152600481018590526001600160a01b039091169063690e7c0990602401600060405180830381600087803b15801561079057600080fd5b505af11580156107a4573d6000803e3d6000fd5b5050505060008184866107b79190611540565b6107c19190611540565b60055460085460405163a9059cbb60e01b81526001600160a01b03918216600482015260248101849052929350169063a9059cbb90604401602060405180830381600087803b15801561081357600080fd5b505af1158015610827573d6000803e3d6000fd5b505050506040513d601f19601f8201168201806040525081019061084b9190611446565b50600854600554600654604051636d069a6760e01b81526001600160a01b0392831660048201526024810185905290821660448201526000929190911690636d069a6790606401602060405180830381600087803b1580156108ac57600080fd5b505af11580156108c0573d6000803e3d6000fd5b505050506040513d601f19601f820116820180604052508101906108e4919061147e565b905080600a60008282546108f891906114e9565b9091555050505050505050565b3360009081526001602090815260408083206001600160a01b0386168452909152812054828110156109875760405162461bcd60e51b815260206004820152602560248201527f45524332303a2064656372656173656420616c6c6f77616e63652062656c6f77604482015264207a65726f60d81b606482015260840161041f565b61099633856104378685611540565b5060019392505050565b6000610388338484610ef0565b60006109b860025490565b60075460408051630d6eb59160e41b8152905185926001600160a01b03169163d6eb5910916004808301926020929190829003018186803b1580156109fc57600080fd5b505afa158015610a10573d6000803e3d6000fd5b505050506040513d601f19601f82011682018060405250810190610a34919061147e565b610a3e9190611521565b610a489190611501565b90506000610a5560025490565b83600a54610a639190611521565b610a6d9190611501565b9050610a7933846111a7565b80600a6000828254610a8b9190611540565b909155505060065460085460405163a9059cbb60e01b81526001600160a01b0391821660048201526024810184905291169063a9059cbb90604401602060405180830381600087803b158015610ae057600080fd5b505af1158015610af4573d6000803e3d6000fd5b505050506040513d601f19601f82011682018060405250810190610b189190611446565b50600854600654600554604051636d069a6760e01b81526001600160a01b0392831660048201526024810185905290821660448201526000929190911690636d069a6790606401602060405180830381600087803b158015610b7957600080fd5b505af1158015610b8d573d6000803e3d6000fd5b505050506040513d601f19601f82011682018060405250810190610bb1919061147e565b600754604051634acc79ed60e01b8152600481018690529192506000916001600160a01b0390911690634acc79ed9060240160206040518083038186803b158015610bfb57600080fd5b505afa158015610c0f573d6000803e3d6000fd5b505050506040513d601f19601f82011682018060405250810190610c33919061147e565b60055460075460405163a9059cbb60e01b81526001600160a01b03918216600482015260248101849052929350169063a9059cbb90604401602060405180830381600087803b158015610c8557600080fd5b505af1158015610c99573d6000803e3d6000fd5b505050506040513d601f19601f82011682018060405250810190610cbd9190611446565b50600754604051630575f5a760e11b8152600481018690526001600160a01b0390911690630aebeb4e90602401600060405180830381600087803b158015610d0457600080fd5b505af1158015610d18573d6000803e3d6000fd5b50506005546001600160a01b0316915063a9059cbb90503383610d3b86896114e9565b610d459190611540565b6040516001600160e01b031960e085901b1681526001600160a01b0390921660048301526024820152604401602060405180830381600087803b158015610d8b57600080fd5b505af1158015610d9f573d6000803e3d6000fd5b505050506040513d601f19601f82011682018060405250810190610dc39190611446565b505050505050565b6001600160a01b038316610e2d5760405162461bcd60e51b8152602060048201526024808201527f45524332303a20617070726f76652066726f6d20746865207a65726f206164646044820152637265737360e01b606482015260840161041f565b6001600160a01b038216610e8e5760405162461bcd60e51b815260206004820152602260248201527f45524332303a20617070726f766520746f20746865207a65726f206164647265604482015261737360f01b606482015260840161041f565b6001600160a01b0383811660008181526001602090815260408083209487168084529482529182902085905590518481527f8c5be1e5ebec7d5bd14f71427d1e84f3dd0314c0f7b2291e5b200ac8c7c3b92591015b60405180910390a3505050565b6001600160a01b038316610f545760405162461bcd60e51b815260206004820152602560248201527f45524332303a207472616e736665722066726f6d20746865207a65726f206164604482015264647265737360d81b606482015260840161041f565b6001600160a01b038216610fb65760405162461bcd60e51b815260206004820152602360248201527f45524332303a207472616e7366657220746f20746865207a65726f206164647260448201526265737360e81b606482015260840161041f565b6001600160a01b0383166000908152602081905260409020548181101561102e5760405162461bcd60e51b815260206004820152602660248201527f45524332303a207472616e7366657220616d6f756e7420657863656564732062604482015265616c616e636560d01b606482015260840161041f565b6110388282611540565b6001600160a01b03808616600090815260208190526040808220939093559085168152908120805484929061106e9084906114e9565b92505081905550826001600160a01b0316846001600160a01b03167fddf252ad1be2c89b69c2b068fc378daa952ba7f163c4a11628f55a4df523b3ef846040516110ba91815260200190565b60405180910390a350505050565b6001600160a01b03821661111e5760405162461bcd60e51b815260206004820152601f60248201527f45524332303a206d696e7420746f20746865207a65726f206164647265737300604482015260640161041f565b806002600082825461113091906114e9565b90915550506001600160a01b0382166000908152602081905260408120805483929061115d9084906114e9565b90915550506040518181526001600160a01b038316906000907fddf252ad1be2c89b69c2b068fc378daa952ba7f163c4a11628f55a4df523b3ef9060200160405180910390a35050565b6001600160a01b0382166112075760405162461bcd60e51b815260206004820152602160248201527f45524332303a206275726e2066726f6d20746865207a65726f206164647265736044820152607360f81b606482015260840161041f565b6001600160a01b0382166000908152602081905260409020548181101561127b5760405162461bcd60e51b815260206004820152602260248201527f45524332303a206275726e20616d6f756e7420657863656564732062616c616e604482015261636560f01b606482015260840161041f565b6112858282611540565b6001600160a01b038416600090815260208190526040812091909155600280548492906112b3908490611540565b90915550506040518281526000906001600160a01b038516907fddf252ad1be2c89b69c2b068fc378daa952ba7f163c4a11628f55a4df523b3ef90602001610ee3565b80356001600160a01b038116811461049857600080fd5b60006020828403121561131e578081fd5b611327826112f6565b9392505050565b60008060408385031215611340578081fd5b611349836112f6565b9150611357602084016112f6565b90509250929050565b600080600060608486031215611374578081fd5b61137d846112f6565b925061138b602085016112f6565b9150604084013590509250925092565b600080604083850312156113ad578182fd5b6113b6836112f6565b946020939093013593505050565b600080600080606085870312156113d9578081fd5b6113e2856112f6565b935060208501359250604085013567ffffffffffffffff80821115611405578283fd5b818701915087601f830112611418578283fd5b813581811115611426578384fd5b886020828501011115611437578384fd5b95989497505060200194505050565b600060208284031215611457578081fd5b81518015158114611327578182fd5b600060208284031215611477578081fd5b5035919050565b60006020828403121561148f578081fd5b5051919050565b6000602080835283518082850152825b818110156114c2578581018301518582016040015282016114a6565b818111156114d35783604083870101525b50601f01601f1916929092016040019392505050565b600082198211156114fc576114fc611592565b500190565b60008261151c57634e487b7160e01b81526012600452602481fd5b500490565b600081600019048311821515161561153b5761153b611592565b500290565b60008282101561155257611552611592565b500390565b600181811c9082168061156b57607f821691505b6020821081141561158c57634e487b7160e01b600052602260045260246000fd5b50919050565b634e487b7160e01b600052601160045260246000fdfea26469706673582212201f6778ed67a727e7edf22c52bf7e3d0fe9bc68a62e7416b253cc341525be114264736f6c63430008030033",
  "linkReferences": {},
  "deployedLinkReferences": {}
}